{"contracts/blockchain_contract.sol":{"BlockChain_DNS":{"abi":[{"inputs":[],"stateMutability":"nonpayable","type":"constructor"},{"inputs":[{"internalType":"address","name":"wallet","type":"address"}],"name":"addAuthCompany","outputs":[],"stateMutability":"nonpayable","type":"function"},{"inputs":[{"internalType":"string","name":"domain","type":"string"},{"internalType":"string","name":"ipAddr","type":"string"},{"internalType":"string","name":"ipAddrType","type":"string"},{"internalType":"address","name":"ownerId","type":"address"},{"internalType":"uint64","name":"timestamp","type":"uint64"},{"internalType":"uint64","name":"expiration","type":"uint64"}],"name":"addDomain","outputs":[],"stateMutability":"nonpayable","type":"function"},{"inputs":[{"internalType":"address","name":"","type":"address"}],"name":"authCompanies","outputs":[{"internalType":"bool","name":"","type":"bool"}],"stateMutability":"view","type":"function"},{"inputs":[],"name":"baseCompanyWallet","outputs":[{"internalType":"address","name":"","type":"address"}],"stateMutability":"view","type":"function"},{"inputs":[{"internalType":"uint256","name":"","type":"uint256"}],"name":"domainNames","outputs":[{"internalType":"string","name":"","type":"string"}],"stateMutability":"view","type":"function"},{"inputs":[{"internalType":"string","name":"","type":"string"}],"name":"domains","outputs":[{"internalType":"string","name":"domain","type":"string"},{"internalType":"string","name":"ipAddr","type":"string"},{"internalType":"string","name":"ipAddrType","type":"string"},{"internalType":"address","name":"ownerId","type":"address"},{"internalType":"address","name":"authCompanyId","type":"address"},{"internalType":"uint64","name":"timestamp","type":"uint64"},{"internalType":"uint64","name":"expiration","type":"uint64"}],"stateMutability":"view","type":"function"},{"inputs":[],"name":"getAllDomains","outputs":[{"components":[{"internalType":"string","name":"domain","type":"string"},{"internalType":"string","name":"ipAddr","type":"string"},{"internalType":"string","name":"ipAddrType","type":"string"},{"internalType":"address","name":"ownerId","type":"address"},{"internalType":"address","name":"authCompanyId","type":"address"},{"internalType":"uint64","name":"timestamp","type":"uint64"},{"internalType":"uint64","name":"expiration","type":"uint64"}],"internalType":"struct BlockChain_DNS.Domain[]","name":"","type":"tuple[]"}],"stateMutability":"view","type":"function"},{"inputs":[{"internalType":"string","name":"domainName","type":"string"}],"name":"getDomain","outputs":[{"internalType":"string","name":"","type":"string"},{"internalType":"uint64","name":"expiration","type":"uint64"}],"stateMutability":"view","type":"function"}],"evm":{"bytecode":{"linkReferences":{},"object":"608060405234801561001057600080fd5b50336000806101000a81548173ffffffffffffffffffffffffffffffffffffffff021916908373ffffffffffffffffffffffffffffffffffffffff1602179055506001600360008060009054906101000a900473ffffffffffffffffffffffffffffffffffffffff1673ffffffffffffffffffffffffffffffffffffffff1673ffffffffffffffffffffffffffffffffffffffff16815260200190815260200160002060006101000a81548160ff021916908315150217905550611aca806100d96000396000f3fe608060405234801561001057600080fd5b50600436106100885760003560e01c8063636921cf1161005b578063636921cf1461012d578063658c734a1461015d578063ecdd04da1461017b578063ef2bf8b4146101ac57610088565b8063216f47771461008d57806326449235146100bd57806335b6c82a146100f35780635a018e6a1461010f575b600080fd5b6100a760048036038101906100a29190610e05565b6101c8565b6040516100b49190610e4d565b60405180910390f35b6100d760048036038101906100d29190610fae565b6101e8565b6040516100ea97969594939291906110a8565b60405180910390f35b61010d60048036038101906101089190610e05565b610440565b005b610117610529565b6040516101249190611300565b60405180910390f35b61014760048036038101906101429190611358565b6108e3565b6040516101549190611385565b60405180910390f35b61016561098f565b60405161017291906113a7565b60405180910390f35b61019560048036038101906101909190610fae565b6109b3565b6040516101a39291906113c2565b60405180910390f35b6101c660048036038101906101c1919061141e565b610a8b565b005b60036020528060005260406000206000915054906101000a900460ff1681565b6002818051602081018201805184825260208301602085012081835280955050505050506000915090508060000180546102219061152e565b80601f016020809104026020016040519081016040528092919081815260200182805461024d9061152e565b801561029a5780601f1061026f5761010080835404028352916020019161029a565b820191906000526020600020905b81548152906001019060200180831161027d57829003601f168201915b5050505050908060010180546102af9061152e565b80601f01602080910402602001604051908101604052809291908181526020018280546102db9061152e565b80156103285780601f106102fd57610100808354040283529160200191610328565b820191906000526020600020905b81548152906001019060200180831161030b57829003601f168201915b50505050509080600201805461033d9061152e565b80601f01602080910402602001604051908101604052809291908181526020018280546103699061152e565b80156103b65780601f1061038b576101008083540402835291602001916103b6565b820191906000526020600020905b81548152906001019060200180831161039957829003601f168201915b5050505050908060030160009054906101000a900473ffffffffffffffffffffffffffffffffffffffff16908060040160009054906101000a900473ffffffffffffffffffffffffffffffffffffffff16908060040160149054906101000a900467ffffffffffffffff16908060050160009054906101000a900467ffffffffffffffff16905087565b60008054906101000a900473ffffffffffffffffffffffffffffffffffffffff1673ffffffffffffffffffffffffffffffffffffffff163373ffffffffffffffffffffffffffffffffffffffff16146104ce576040517f08c379a00000000000000000000000000000000000000000000000000000000081526004016104c5906115d1565b60405180910390fd5b6001600360008373ffffffffffffffffffffffffffffffffffffffff1673ffffffffffffffffffffffffffffffffffffffff16815260200190815260200160002060006101000a81548160ff02191690831515021790555050565b6060600060018054905067ffffffffffffffff81111561054c5761054b610e83565b5b60405190808252806020026020018201604052801561058557816020015b610572610d16565b81526020019060019003908161056a5790505b50905060005b6001805490508110156108db5760006002600183815481106105b0576105af6115f1565b5b906000526020600020016040516105c791906116c3565b90815260200160405180910390209050806040518060e00160405290816000820180546105f39061152e565b80601f016020809104026020016040519081016040528092919081815260200182805461061f9061152e565b801561066c5780601f106106415761010080835404028352916020019161066c565b820191906000526020600020905b81548152906001019060200180831161064f57829003601f168201915b505050505081526020016001820180546106859061152e565b80601f01602080910402602001604051908101604052809291908181526020018280546106b19061152e565b80156106fe5780601f106106d3576101008083540402835291602001916106fe565b820191906000526020600020905b8154815290600101906020018083116106e157829003601f168201915b505050505081526020016002820180546107179061152e565b80601f01602080910402602001604051908101604052809291908181526020018280546107439061152e565b80156107905780601f1061076557610100808354040283529160200191610790565b820191906000526020600020905b81548152906001019060200180831161077357829003601f168201915b505050505081526020016003820160009054906101000a900473ffffffffffffffffffffffffffffffffffffffff1673ffffffffffffffffffffffffffffffffffffffff1673ffffffffffffffffffffffffffffffffffffffff1681526020016004820160009054906101000a900473ffffffffffffffffffffffffffffffffffffffff1673ffffffffffffffffffffffffffffffffffffffff1673ffffffffffffffffffffffffffffffffffffffff1681526020016004820160149054906101000a900467ffffffffffffffff1667ffffffffffffffff1667ffffffffffffffff1681526020016005820160009054906101000a900467ffffffffffffffff1667ffffffffffffffff1667ffffffffffffffff16815250508383815181106108bc576108bb6115f1565b5b60200260200101819052505080806108d390611709565b91505061058b565b508091505090565b600181815481106108f357600080fd5b90600052602060002001600091509050805461090e9061152e565b80601f016020809104026020016040519081016040528092919081815260200182805461093a9061152e565b80156109875780601f1061095c57610100808354040283529160200191610987565b820191906000526020600020905b81548152906001019060200180831161096a57829003601f168201915b505050505081565b60008054906101000a900473ffffffffffffffffffffffffffffffffffffffff1681565b60606000806002846040516109c89190611782565b90815260200160405180910390209050806001018160050160009054906101000a900467ffffffffffffffff16818054610a019061152e565b80601f0160208091040260200160405190810160405280929190818152602001828054610a2d9061152e565b8015610a7a5780601f10610a4f57610100808354040283529160200191610a7a565b820191906000526020600020905b815481529060010190602001808311610a5d57829003601f168201915b505050505091509250925050915091565b600360003373ffffffffffffffffffffffffffffffffffffffff1673ffffffffffffffffffffffffffffffffffffffff16815260200190815260200160002060009054906101000a900460ff16610b17576040517f08c379a0000000000000000000000000000000000000000000000000000000008152600401610b0e9061180b565b60405180910390fd5b6040518060e001604052808781526020018681526020018581526020018473ffffffffffffffffffffffffffffffffffffffff1681526020013373ffffffffffffffffffffffffffffffffffffffff1681526020018367ffffffffffffffff1681526020018267ffffffffffffffff16815250600287604051610b9a9190611782565b90815260200160405180910390206000820151816000019081610bbd91906119c2565b506020820151816001019081610bd391906119c2565b506040820151816002019081610be991906119c2565b5060608201518160030160006101000a81548173ffffffffffffffffffffffffffffffffffffffff021916908373ffffffffffffffffffffffffffffffffffffffff16021790555060808201518160040160006101000a81548173ffffffffffffffffffffffffffffffffffffffff021916908373ffffffffffffffffffffffffffffffffffffffff16021790555060a08201518160040160146101000a81548167ffffffffffffffff021916908367ffffffffffffffff16021790555060c08201518160050160006101000a81548167ffffffffffffffff021916908367ffffffffffffffff160217905550905050600186908060018154018082558091505060019003906000526020600020016000909190919091509081610d0d91906119c2565b50505050505050565b6040518060e00160405280606081526020016060815260200160608152602001600073ffffffffffffffffffffffffffffffffffffffff168152602001600073ffffffffffffffffffffffffffffffffffffffff168152602001600067ffffffffffffffff168152602001600067ffffffffffffffff1681525090565b6000604051905090565b600080fd5b600080fd5b600073ffffffffffffffffffffffffffffffffffffffff82169050919050565b6000610dd282610da7565b9050919050565b610de281610dc7565b8114610ded57600080fd5b50565b600081359050610dff81610dd9565b92915050565b600060208284031215610e1b57610e1a610d9d565b5b6000610e2984828501610df0565b91505092915050565b60008115159050919050565b610e4781610e32565b82525050565b6000602082019050610e626000830184610e3e565b92915050565b600080fd5b600080fd5b6000601f19601f8301169050919050565b7f4e487b7100000000000000000000000000000000000000000000000000000000600052604160045260246000fd5b610ebb82610e72565b810181811067ffffffffffffffff82111715610eda57610ed9610e83565b5b80604052505050565b6000610eed610d93565b9050610ef98282610eb2565b919050565b600067ffffffffffffffff821115610f1957610f18610e83565b5b610f2282610e72565b9050602081019050919050565b82818337600083830152505050565b6000610f51610f4c84610efe565b610ee3565b905082815260208101848484011115610f6d57610f6c610e6d565b5b610f78848285610f2f565b509392505050565b600082601f830112610f9557610f94610e68565b5b8135610fa5848260208601610f3e565b91505092915050565b600060208284031215610fc457610fc3610d9d565b5b600082013567ffffffffffffffff811115610fe257610fe1610da2565b5b610fee84828501610f80565b91505092915050565b600081519050919050565b600082825260208201905092915050565b60005b83811015611031578082015181840152602081019050611016565b60008484015250505050565b600061104882610ff7565b6110528185611002565b9350611062818560208601611013565b61106b81610e72565b840191505092915050565b61107f81610dc7565b82525050565b600067ffffffffffffffff82169050919050565b6110a281611085565b82525050565b600060e08201905081810360008301526110c2818a61103d565b905081810360208301526110d6818961103d565b905081810360408301526110ea818861103d565b90506110f96060830187611076565b6111066080830186611076565b61111360a0830185611099565b61112060c0830184611099565b98975050505050505050565b600081519050919050565b600082825260208201905092915050565b6000819050602082019050919050565b600082825260208201905092915050565b600061117482610ff7565b61117e8185611158565b935061118e818560208601611013565b61119781610e72565b840191505092915050565b6111ab81610dc7565b82525050565b6111ba81611085565b82525050565b600060e08301600083015184820360008601526111dd8282611169565b915050602083015184820360208601526111f78282611169565b915050604083015184820360408601526112118282611169565b915050606083015161122660608601826111a2565b50608083015161123960808601826111a2565b5060a083015161124c60a08601826111b1565b5060c083015161125f60c08601826111b1565b508091505092915050565b600061127683836111c0565b905092915050565b6000602082019050919050565b60006112968261112c565b6112a08185611137565b9350836020820285016112b285611148565b8060005b858110156112ee57848403895281516112cf858261126a565b94506112da8361127e565b925060208a019950506001810190506112b6565b50829750879550505050505092915050565b6000602082019050818103600083015261131a818461128b565b905092915050565b6000819050919050565b61133581611322565b811461134057600080fd5b50565b6000813590506113528161132c565b92915050565b60006020828403121561136e5761136d610d9d565b5b600061137c84828501611343565b91505092915050565b6000602082019050818103600083015261139f818461103d565b905092915050565b60006020820190506113bc6000830184611076565b92915050565b600060408201905081810360008301526113dc818561103d565b90506113eb6020830184611099565b9392505050565b6113fb81611085565b811461140657600080fd5b50565b600081359050611418816113f2565b92915050565b60008060008060008060c0878903121561143b5761143a610d9d565b5b600087013567ffffffffffffffff81111561145957611458610da2565b5b61146589828a01610f80565b965050602087013567ffffffffffffffff81111561148657611485610da2565b5b61149289828a01610f80565b955050604087013567ffffffffffffffff8111156114b3576114b2610da2565b5b6114bf89828a01610f80565b94505060606114d089828a01610df0565b93505060806114e189828a01611409565b92505060a06114f289828a01611409565b9150509295509295509295565b7f4e487b7100000000000000000000000000000000000000000000000000000000600052602260045260246000fd5b6000600282049050600182168061154657607f821691505b602082108103611559576115586114ff565b5b50919050565b7f4f6e6c7920746865206261736520636f6d70616e792077616c6c65742063616e60008201527f2063616c6c20746869732066756e6374696f6e00000000000000000000000000602082015250565b60006115bb603383611002565b91506115c68261155f565b604082019050919050565b600060208201905081810360008301526115ea816115ae565b9050919050565b7f4e487b7100000000000000000000000000000000000000000000000000000000600052603260045260246000fd5b600081905092915050565b60008190508160005260206000209050919050565b6000815461164d8161152e565b6116578186611620565b945060018216600081146116725760018114611687576116ba565b60ff19831686528115158202860193506116ba565b6116908561162b565b60005b838110156116b257815481890152600182019150602081019050611693565b838801955050505b50505092915050565b60006116cf8284611640565b915081905092915050565b7f4e487b7100000000000000000000000000000000000000000000000000000000600052601160045260246000fd5b600061171482611322565b91507fffffffffffffffffffffffffffffffffffffffffffffffffffffffffffffffff8203611746576117456116da565b5b600182019050919050565b600061175c82610ff7565b6117668185611620565b9350611776818560208601611013565b80840191505092915050565b600061178e8284611751565b915081905092915050565b7f4f6e6c7920617574686f72697a656420636f6d70616e792077616c6c6574732060008201527f63616e2063616c6c20746869732066756e6374696f6e00000000000000000000602082015250565b60006117f5603683611002565b915061180082611799565b604082019050919050565b60006020820190508181036000830152611824816117e8565b9050919050565b60006020601f8301049050919050565b600082821b905092915050565b6000600883026118787fffffffffffffffffffffffffffffffffffffffffffffffffffffffffffffffff8261183b565b611882868361183b565b95508019841693508086168417925050509392505050565b6000819050919050565b60006118bf6118ba6118b584611322565b61189a565b611322565b9050919050565b6000819050919050565b6118d9836118a4565b6118ed6118e5826118c6565b848454611848565b825550505050565b600090565b6119026118f5565b61190d8184846118d0565b505050565b5b81811015611931576119266000826118fa565b600181019050611913565b5050565b601f821115611976576119478161162b565b6119508461182b565b8101602085101561195f578190505b61197361196b8561182b565b830182611912565b50505b505050565b600082821c905092915050565b60006119996000198460080261197b565b1980831691505092915050565b60006119b28383611988565b9150826002028217905092915050565b6119cb82610ff7565b67ffffffffffffffff8111156119e4576119e3610e83565b5b6119ee825461152e565b6119f9828285611935565b600060209050601f831160018114611a2c5760008415611a1a578287015190505b611a2485826119a6565b865550611a8c565b601f198416611a3a8661162b565b60005b82811015611a6257848901518255600182019150602085019450602081019050611a3d565b86831015611a7f5784890151611a7b601f891682611988565b8355505b6001600288020188555050505b50505050505056fea264697066735822122060bc05d578f141ba6006aec986f49fe15b22f79d92c4c8cf636f5146c63f867564736f6c63430008130033","opcodes":"PUSH1 0x80 PUSH1 0x40 MSTORE CALLVALUE DUP1 ISZERO PUSH2 0x10 JUMPI PUSH1 0x0 DUP1 REVERT JUMPDEST POP CALLER PUSH1 0x0 DUP1 PUSH2 0x100 EXP DUP2 SLOAD DUP2 PUSH20 0xFFFFFFFFFFFFFFFFFFFFFFFFFFFFFFFFFFFFFFFF MUL NOT AND SWAP1 DUP4 PUSH20 0xFFFFFFFFFFFFFFFFFFFFFFFFFFFFFFFFFFFFFFFF AND MUL OR SWAP1 SSTORE POP PUSH1 0x1 PUSH1 0x3 PUSH1 0x0 DUP1 PUSH1 0x0 SWAP1 SLOAD SWAP1 PUSH2 0x100 EXP SWAP1 DIV PUSH20 0xFFFFFFFFFFFFFFFFFFFFFFFFFFFFFFFFFFFFFFFF AND PUSH20 0xFFFFFFFFFFFFFFFFFFFFFFFFFFFFFFFFFFFFFFFF AND PUSH20 0xFFFFFFFFFFFFFFFFFFFFFFFFFFFFFFFFFFFFFFFF AND DUP2 MSTORE PUSH1 0x20 ADD SWAP1 DUP2 MSTORE PUSH1 0x20 ADD PUSH1 0x0 KECCAK256 PUSH1 0x0 PUSH2 0x100 EXP DUP2 SLOAD DUP2 PUSH1 0xFF MUL NOT AND SWAP1 DUP4 ISZERO ISZERO MUL OR SWAP1 SSTORE POP PUSH2 0x1ACA DUP1 PUSH2 0xD9 PUSH1 0x0 CODECOPY PUSH1 0x0 RETURN INVALID PUSH1 0x80 PUSH1 0x40 MSTORE CALLVALUE DUP1 ISZERO PUSH2 0x10 JUMPI PUSH1 0x0 DUP1 REVERT JUMPDEST POP PUSH1 0x4 CALLDATASIZE LT PUSH2 0x88 JUMPI PUSH1 0x0 CALLDATALOAD PUSH1 0xE0 SHR DUP1 PUSH4 0x636921CF GT PUSH2 0x5B JUMPI DUP1 PUSH4 0x636921CF EQ PUSH2 0x12D JUMPI DUP1 PUSH4 0x658C734A EQ PUSH2 0x15D JUMPI DUP1 PUSH4 0xECDD04DA EQ PUSH2 0x17B JUMPI DUP1 PUSH4 0xEF2BF8B4 EQ PUSH2 0x1AC JUMPI PUSH2 0x88 JUMP JUMPDEST DUP1 PUSH4 0x216F4777 EQ PUSH2 0x8D JUMPI DUP1 PUSH4 0x26449235 EQ PUSH2 0xBD JUMPI DUP1 PUSH4 0x35B6C82A EQ PUSH2 0xF3 JUMPI DUP1 PUSH4 0x5A018E6A EQ PUSH2 0x10F JUMPI JUMPDEST PUSH1 0x0 DUP1 REVERT JUMPDEST PUSH2 0xA7 PUSH1 0x4 DUP1 CALLDATASIZE SUB DUP2 ADD SWAP1 PUSH2 0xA2 SWAP2 SWAP1 PUSH2 0xE05 JUMP JUMPDEST PUSH2 0x1C8 JUMP JUMPDEST PUSH1 0x40 MLOAD PUSH2 0xB4 SWAP2 SWAP1 PUSH2 0xE4D JUMP JUMPDEST PUSH1 0x40 MLOAD DUP1 SWAP2 SUB SWAP1 RETURN JUMPDEST PUSH2 0xD7 PUSH1 0x4 DUP1 CALLDATASIZE SUB DUP2 ADD SWAP1 PUSH2 0xD2 SWAP2 SWAP1 PUSH2 0xFAE JUMP JUMPDEST PUSH2 0x1E8 JUMP JUMPDEST PUSH1 0x40 MLOAD PUSH2 0xEA SWAP8 SWAP7 SWAP6 SWAP5 SWAP4 SWAP3 SWAP2 SWAP1 PUSH2 0x10A8 JUMP JUMPDEST PUSH1 0x40 MLOAD DUP1 SWAP2 SUB SWAP1 RETURN JUMPDEST PUSH2 0x10D PUSH1 0x4 DUP1 CALLDATASIZE SUB DUP2 ADD SWAP1 PUSH2 0x108 SWAP2 SWAP1 PUSH2 0xE05 JUMP JUMPDEST PUSH2 0x440 JUMP JUMPDEST STOP JUMPDEST PUSH2 0x117 PUSH2 0x529 JUMP JUMPDEST PUSH1 0x40 MLOAD PUSH2 0x124 SWAP2 SWAP1 PUSH2 0x1300 JUMP JUMPDEST PUSH1 0x40 MLOAD DUP1 SWAP2 SUB SWAP1 RETURN JUMPDEST PUSH2 0x147 PUSH1 0x4 DUP1 CALLDATASIZE SUB DUP2 ADD SWAP1 PUSH2 0x142 SWAP2 SWAP1 PUSH2 0x1358 JUMP JUMPDEST PUSH2 0x8E3 JUMP JUMPDEST PUSH1 0x40 MLOAD PUSH2 0x154 SWAP2 SWAP1 PUSH2 0x1385 JUMP JUMPDEST PUSH1 0x40 MLOAD DUP1 SWAP2 SUB SWAP1 RETURN JUMPDEST PUSH2 0x165 PUSH2 0x98F JUMP JUMPDEST PUSH1 0x40 MLOAD PUSH2 0x172 SWAP2 SWAP1 PUSH2 0x13A7 JUMP JUMPDEST PUSH1 0x40 MLOAD DUP1 SWAP2 SUB SWAP1 RETURN JUMPDEST PUSH2 0x195 PUSH1 0x4 DUP1 CALLDATASIZE SUB DUP2 ADD SWAP1 PUSH2 0x190 SWAP2 SWAP1 PUSH2 0xFAE JUMP JUMPDEST PUSH2 0x9B3 JUMP JUMPDEST PUSH1 0x40 MLOAD PUSH2 0x1A3 SWAP3 SWAP2 SWAP1 PUSH2 0x13C2 JUMP JUMPDEST PUSH1 0x40 MLOAD DUP1 SWAP2 SUB SWAP1 RETURN JUMPDEST PUSH2 0x1C6 PUSH1 0x4 DUP1 CALLDATASIZE SUB DUP2 ADD SWAP1 PUSH2 0x1C1 SWAP2 SWAP1 PUSH2 0x141E JUMP JUMPDEST PUSH2 0xA8B JUMP JUMPDEST STOP JUMPDEST PUSH1 0x3 PUSH1 0x20 MSTORE DUP1 PUSH1 0x0 MSTORE PUSH1 0x40 PUSH1 0x0 KECCAK256 PUSH1 0x0 SWAP2 POP SLOAD SWAP1 PUSH2 0x100 EXP SWAP1 DIV PUSH1 0xFF AND DUP2 JUMP JUMPDEST PUSH1 0x2 DUP2 DUP1 MLOAD PUSH1 0x20 DUP2 ADD DUP3 ADD DUP1 MLOAD DUP5 DUP3 MSTORE PUSH1 0x20 DUP4 ADD PUSH1 0x20 DUP6 ADD KECCAK256 DUP2 DUP4 MSTORE DUP1 SWAP6 POP POP POP POP POP POP PUSH1 0x0 SWAP2 POP SWAP1 POP DUP1 PUSH1 0x0 ADD DUP1 SLOAD PUSH2 0x221 SWAP1 PUSH2 0x152E JUMP JUMPDEST DUP1 PUSH1 0x1F ADD PUSH1 0x20 DUP1 SWAP2 DIV MUL PUSH1 0x20 ADD PUSH1 0x40 MLOAD SWAP1 DUP2 ADD PUSH1 0x40 MSTORE DUP1 SWAP3 SWAP2 SWAP1 DUP2 DUP2 MSTORE PUSH1 0x20 ADD DUP3 DUP1 SLOAD PUSH2 0x24D SWAP1 PUSH2 0x152E JUMP JUMPDEST DUP1 ISZERO PUSH2 0x29A JUMPI DUP1 PUSH1 0x1F LT PUSH2 0x26F JUMPI PUSH2 0x100 DUP1 DUP4 SLOAD DIV MUL DUP4 MSTORE SWAP2 PUSH1 0x20 ADD SWAP2 PUSH2 0x29A JUMP JUMPDEST DUP3 ADD SWAP2 SWAP1 PUSH1 0x0 MSTORE PUSH1 0x20 PUSH1 0x0 KECCAK256 SWAP1 JUMPDEST DUP2 SLOAD DUP2 MSTORE SWAP1 PUSH1 0x1 ADD SWAP1 PUSH1 0x20 ADD DUP1 DUP4 GT PUSH2 0x27D JUMPI DUP3 SWAP1 SUB PUSH1 0x1F AND DUP3 ADD SWAP2 JUMPDEST POP POP POP POP POP SWAP1 DUP1 PUSH1 0x1 ADD DUP1 SLOAD PUSH2 0x2AF SWAP1 PUSH2 0x152E JUMP JUMPDEST DUP1 PUSH1 0x1F ADD PUSH1 0x20 DUP1 SWAP2 DIV MUL PUSH1 0x20 ADD PUSH1 0x40 MLOAD SWAP1 DUP2 ADD PUSH1 0x40 MSTORE DUP1 SWAP3 SWAP2 SWAP1 DUP2 DUP2 MSTORE PUSH1 0x20 ADD DUP3 DUP1 SLOAD PUSH2 0x2DB SWAP1 PUSH2 0x152E JUMP JUMPDEST DUP1 ISZERO PUSH2 0x328 JUMPI DUP1 PUSH1 0x1F LT PUSH2 0x2FD JUMPI PUSH2 0x100 DUP1 DUP4 SLOAD DIV MUL DUP4 MSTORE SWAP2 PUSH1 0x20 ADD SWAP2 PUSH2 0x328 JUMP JUMPDEST DUP3 ADD SWAP2 SWAP1 PUSH1 0x0 MSTORE PUSH1 0x20 PUSH1 0x0 KECCAK256 SWAP1 JUMPDEST DUP2 SLOAD DUP2 MSTORE SWAP1 PUSH1 0x1 ADD SWAP1 PUSH1 0x20 ADD DUP1 DUP4 GT PUSH2 0x30B JUMPI DUP3 SWAP1 SUB PUSH1 0x1F AND DUP3 ADD SWAP2 JUMPDEST POP POP POP POP POP SWAP1 DUP1 PUSH1 0x2 ADD DUP1 SLOAD PUSH2 0x33D SWAP1 PUSH2 0x152E JUMP JUMPDEST DUP1 PUSH1 0x1F ADD PUSH1 0x20 DUP1 SWAP2 DIV MUL PUSH1 0x20 ADD PUSH1 0x40 MLOAD SWAP1 DUP2 ADD PUSH1 0x40 MSTORE DUP1 SWAP3 SWAP2 SWAP1 DUP2 DUP2 MSTORE PUSH1 0x20 ADD DUP3 DUP1 SLOAD PUSH2 0x369 SWAP1 PUSH2 0x152E JUMP JUMPDEST DUP1 ISZERO PUSH2 0x3B6 JUMPI DUP1 PUSH1 0x1F LT PUSH2 0x38B JUMPI PUSH2 0x100 DUP1 DUP4 SLOAD DIV MUL DUP4 MSTORE SWAP2 PUSH1 0x20 ADD SWAP2 PUSH2 0x3B6 JUMP JUMPDEST DUP3 ADD SWAP2 SWAP1 PUSH1 0x0 MSTORE PUSH1 0x20 PUSH1 0x0 KECCAK256 SWAP1 JUMPDEST DUP2 SLOAD DUP2 MSTORE SWAP1 PUSH1 0x1 ADD SWAP1 PUSH1 0x20 ADD DUP1 DUP4 GT PUSH2 0x399 JUMPI DUP3 SWAP1 SUB PUSH1 0x1F AND DUP3 ADD SWAP2 JUMPDEST POP POP POP POP POP SWAP1 DUP1 PUSH1 0x3 ADD PUSH1 0x0 SWAP1 SLOAD SWAP1 PUSH2 0x100 EXP SWAP1 DIV PUSH20 0xFFFFFFFFFFFFFFFFFFFFFFFFFFFFFFFFFFFFFFFF AND SWAP1 DUP1 PUSH1 0x4 ADD PUSH1 0x0 SWAP1 SLOAD SWAP1 PUSH2 0x100 EXP SWAP1 DIV PUSH20 0xFFFFFFFFFFFFFFFFFFFFFFFFFFFFFFFFFFFFFFFF AND SWAP1 DUP1 PUSH1 0x4 ADD PUSH1 0x14 SWAP1 SLOAD SWAP1 PUSH2 0x100 EXP SWAP1 DIV PUSH8 0xFFFFFFFFFFFFFFFF AND SWAP1 DUP1 PUSH1 0x5 ADD PUSH1 0x0 SWAP1 SLOAD SWAP1 PUSH2 0x100 EXP SWAP1 DIV PUSH8 0xFFFFFFFFFFFFFFFF AND SWAP1 POP DUP8 JUMP JUMPDEST PUSH1 0x0 DUP1 SLOAD SWAP1 PUSH2 0x100 EXP SWAP1 DIV PUSH20 0xFFFFFFFFFFFFFFFFFFFFFFFFFFFFFFFFFFFFFFFF AND PUSH20 0xFFFFFFFFFFFFFFFFFFFFFFFFFFFFFFFFFFFFFFFF AND CALLER PUSH20 0xFFFFFFFFFFFFFFFFFFFFFFFFFFFFFFFFFFFFFFFF AND EQ PUSH2 0x4CE JUMPI PUSH1 0x40 MLOAD PUSH32 0x8C379A000000000000000000000000000000000000000000000000000000000 DUP2 MSTORE PUSH1 0x4 ADD PUSH2 0x4C5 SWAP1 PUSH2 0x15D1 JUMP JUMPDEST PUSH1 0x40 MLOAD DUP1 SWAP2 SUB SWAP1 REVERT JUMPDEST PUSH1 0x1 PUSH1 0x3 PUSH1 0x0 DUP4 PUSH20 0xFFFFFFFFFFFFFFFFFFFFFFFFFFFFFFFFFFFFFFFF AND PUSH20 0xFFFFFFFFFFFFFFFFFFFFFFFFFFFFFFFFFFFFFFFF AND DUP2 MSTORE PUSH1 0x20 ADD SWAP1 DUP2 MSTORE PUSH1 0x20 ADD PUSH1 0x0 KECCAK256 PUSH1 0x0 PUSH2 0x100 EXP DUP2 SLOAD DUP2 PUSH1 0xFF MUL NOT AND SWAP1 DUP4 ISZERO ISZERO MUL OR SWAP1 SSTORE POP POP JUMP JUMPDEST PUSH1 0x60 PUSH1 0x0 PUSH1 0x1 DUP1 SLOAD SWAP1 POP PUSH8 0xFFFFFFFFFFFFFFFF DUP2 GT ISZERO PUSH2 0x54C JUMPI PUSH2 0x54B PUSH2 0xE83 JUMP JUMPDEST JUMPDEST PUSH1 0x40 MLOAD SWAP1 DUP1 DUP3 MSTORE DUP1 PUSH1 0x20 MUL PUSH1 0x20 ADD DUP3 ADD PUSH1 0x40 MSTORE DUP1 ISZERO PUSH2 0x585 JUMPI DUP2 PUSH1 0x20 ADD JUMPDEST PUSH2 0x572 PUSH2 0xD16 JUMP JUMPDEST DUP2 MSTORE PUSH1 0x20 ADD SWAP1 PUSH1 0x1 SWAP1 SUB SWAP1 DUP2 PUSH2 0x56A JUMPI SWAP1 POP JUMPDEST POP SWAP1 POP PUSH1 0x0 JUMPDEST PUSH1 0x1 DUP1 SLOAD SWAP1 POP DUP2 LT ISZERO PUSH2 0x8DB JUMPI PUSH1 0x0 PUSH1 0x2 PUSH1 0x1 DUP4 DUP2 SLOAD DUP2 LT PUSH2 0x5B0 JUMPI PUSH2 0x5AF PUSH2 0x15F1 JUMP JUMPDEST JUMPDEST SWAP1 PUSH1 0x0 MSTORE PUSH1 0x20 PUSH1 0x0 KECCAK256 ADD PUSH1 0x40 MLOAD PUSH2 0x5C7 SWAP2 SWAP1 PUSH2 0x16C3 JUMP JUMPDEST SWAP1 DUP2 MSTORE PUSH1 0x20 ADD PUSH1 0x40 MLOAD DUP1 SWAP2 SUB SWAP1 KECCAK256 SWAP1 POP DUP1 PUSH1 0x40 MLOAD DUP1 PUSH1 0xE0 ADD PUSH1 0x40 MSTORE SWAP1 DUP2 PUSH1 0x0 DUP3 ADD DUP1 SLOAD PUSH2 0x5F3 SWAP1 PUSH2 0x152E JUMP JUMPDEST DUP1 PUSH1 0x1F ADD PUSH1 0x20 DUP1 SWAP2 DIV MUL PUSH1 0x20 ADD PUSH1 0x40 MLOAD SWAP1 DUP2 ADD PUSH1 0x40 MSTORE DUP1 SWAP3 SWAP2 SWAP1 DUP2 DUP2 MSTORE PUSH1 0x20 ADD DUP3 DUP1 SLOAD PUSH2 0x61F SWAP1 PUSH2 0x152E JUMP JUMPDEST DUP1 ISZERO PUSH2 0x66C JUMPI DUP1 PUSH1 0x1F LT PUSH2 0x641 JUMPI PUSH2 0x100 DUP1 DUP4 SLOAD DIV MUL DUP4 MSTORE SWAP2 PUSH1 0x20 ADD SWAP2 PUSH2 0x66C JUMP JUMPDEST DUP3 ADD SWAP2 SWAP1 PUSH1 0x0 MSTORE PUSH1 0x20 PUSH1 0x0 KECCAK256 SWAP1 JUMPDEST DUP2 SLOAD DUP2 MSTORE SWAP1 PUSH1 0x1 ADD SWAP1 PUSH1 0x20 ADD DUP1 DUP4 GT PUSH2 0x64F JUMPI DUP3 SWAP1 SUB PUSH1 0x1F AND DUP3 ADD SWAP2 JUMPDEST POP POP POP POP POP DUP2 MSTORE PUSH1 0x20 ADD PUSH1 0x1 DUP3 ADD DUP1 SLOAD PUSH2 0x685 SWAP1 PUSH2 0x152E JUMP JUMPDEST DUP1 PUSH1 0x1F ADD PUSH1 0x20 DUP1 SWAP2 DIV MUL PUSH1 0x20 ADD PUSH1 0x40 MLOAD SWAP1 DUP2 ADD PUSH1 0x40 MSTORE DUP1 SWAP3 SWAP2 SWAP1 DUP2 DUP2 MSTORE PUSH1 0x20 ADD DUP3 DUP1 SLOAD PUSH2 0x6B1 SWAP1 PUSH2 0x152E JUMP JUMPDEST DUP1 ISZERO PUSH2 0x6FE JUMPI DUP1 PUSH1 0x1F LT PUSH2 0x6D3 JUMPI PUSH2 0x100 DUP1 DUP4 SLOAD DIV MUL DUP4 MSTORE SWAP2 PUSH1 0x20 ADD SWAP2 PUSH2 0x6FE JUMP JUMPDEST DUP3 ADD SWAP2 SWAP1 PUSH1 0x0 MSTORE PUSH1 0x20 PUSH1 0x0 KECCAK256 SWAP1 JUMPDEST DUP2 SLOAD DUP2 MSTORE SWAP1 PUSH1 0x1 ADD SWAP1 PUSH1 0x20 ADD DUP1 DUP4 GT PUSH2 0x6E1 JUMPI DUP3 SWAP1 SUB PUSH1 0x1F AND DUP3 ADD SWAP2 JUMPDEST POP POP POP POP POP DUP2 MSTORE PUSH1 0x20 ADD PUSH1 0x2 DUP3 ADD DUP1 SLOAD PUSH2 0x717 SWAP1 PUSH2 0x152E JUMP JUMPDEST DUP1 PUSH1 0x1F ADD PUSH1 0x20 DUP1 SWAP2 DIV MUL PUSH1 0x20 ADD PUSH1 0x40 MLOAD SWAP1 DUP2 ADD PUSH1 0x40 MSTORE DUP1 SWAP3 SWAP2 SWAP1 DUP2 DUP2 MSTORE PUSH1 0x20 ADD DUP3 DUP1 SLOAD PUSH2 0x743 SWAP1 PUSH2 0x152E JUMP JUMPDEST DUP1 ISZERO PUSH2 0x790 JUMPI DUP1 PUSH1 0x1F LT PUSH2 0x765 JUMPI PUSH2 0x100 DUP1 DUP4 SLOAD DIV MUL DUP4 MSTORE SWAP2 PUSH1 0x20 ADD SWAP2 PUSH2 0x790 JUMP JUMPDEST DUP3 ADD SWAP2 SWAP1 PUSH1 0x0 MSTORE PUSH1 0x20 PUSH1 0x0 KECCAK256 SWAP1 JUMPDEST DUP2 SLOAD DUP2 MSTORE SWAP1 PUSH1 0x1 ADD SWAP1 PUSH1 0x20 ADD DUP1 DUP4 GT PUSH2 0x773 JUMPI DUP3 SWAP1 SUB PUSH1 0x1F AND DUP3 ADD SWAP2 JUMPDEST POP POP POP POP POP DUP2 MSTORE PUSH1 0x20 ADD PUSH1 0x3 DUP3 ADD PUSH1 0x0 SWAP1 SLOAD SWAP1 PUSH2 0x100 EXP SWAP1 DIV PUSH20 0xFFFFFFFFFFFFFFFFFFFFFFFFFFFFFFFFFFFFFFFF AND PUSH20 0xFFFFFFFFFFFFFFFFFFFFFFFFFFFFFFFFFFFFFFFF AND PUSH20 0xFFFFFFFFFFFFFFFFFFFFFFFFFFFFFFFFFFFFFFFF AND DUP2 MSTORE PUSH1 0x20 ADD PUSH1 0x4 DUP3 ADD PUSH1 0x0 SWAP1 SLOAD SWAP1 PUSH2 0x100 EXP SWAP1 DIV PUSH20 0xFFFFFFFFFFFFFFFFFFFFFFFFFFFFFFFFFFFFFFFF AND PUSH20 0xFFFFFFFFFFFFFFFFFFFFFFFFFFFFFFFFFFFFFFFF AND PUSH20 0xFFFFFFFFFFFFFFFFFFFFFFFFFFFFFFFFFFFFFFFF AND DUP2 MSTORE PUSH1 0x20 ADD PUSH1 0x4 DUP3 ADD PUSH1 0x14 SWAP1 SLOAD SWAP1 PUSH2 0x100 EXP SWAP1 DIV PUSH8 0xFFFFFFFFFFFFFFFF AND PUSH8 0xFFFFFFFFFFFFFFFF AND PUSH8 0xFFFFFFFFFFFFFFFF AND DUP2 MSTORE PUSH1 0x20 ADD PUSH1 0x5 DUP3 ADD PUSH1 0x0 SWAP1 SLOAD SWAP1 PUSH2 0x100 EXP SWAP1 DIV PUSH8 0xFFFFFFFFFFFFFFFF AND PUSH8 0xFFFFFFFFFFFFFFFF AND PUSH8 0xFFFFFFFFFFFFFFFF AND DUP2 MSTORE POP POP DUP4 DUP4 DUP2 MLOAD DUP2 LT PUSH2 0x8BC JUMPI PUSH2 0x8BB PUSH2 0x15F1 JUMP JUMPDEST JUMPDEST PUSH1 0x20 MUL PUSH1 0x20 ADD ADD DUP2 SWAP1 MSTORE POP POP DUP1 DUP1 PUSH2 0x8D3 SWAP1 PUSH2 0x1709 JUMP JUMPDEST SWAP2 POP POP PUSH2 0x58B JUMP JUMPDEST POP DUP1 SWAP2 POP POP SWAP1 JUMP JUMPDEST PUSH1 0x1 DUP2 DUP2 SLOAD DUP2 LT PUSH2 0x8F3 JUMPI PUSH1 0x0 DUP1 REVERT JUMPDEST SWAP1 PUSH1 0x0 MSTORE PUSH1 0x20 PUSH1 0x0 KECCAK256 ADD PUSH1 0x0 SWAP2 POP SWAP1 POP DUP1 SLOAD PUSH2 0x90E SWAP1 PUSH2 0x152E JUMP JUMPDEST DUP1 PUSH1 0x1F ADD PUSH1 0x20 DUP1 SWAP2 DIV MUL PUSH1 0x20 ADD PUSH1 0x40 MLOAD SWAP1 DUP2 ADD PUSH1 0x40 MSTORE DUP1 SWAP3 SWAP2 SWAP1 DUP2 DUP2 MSTORE PUSH1 0x20 ADD DUP3 DUP1 SLOAD PUSH2 0x93A SWAP1 PUSH2 0x152E JUMP JUMPDEST DUP1 ISZERO PUSH2 0x987 JUMPI DUP1 PUSH1 0x1F LT PUSH2 0x95C JUMPI PUSH2 0x100 DUP1 DUP4 SLOAD DIV MUL DUP4 MSTORE SWAP2 PUSH1 0x20 ADD SWAP2 PUSH2 0x987 JUMP JUMPDEST DUP3 ADD SWAP2 SWAP1 PUSH1 0x0 MSTORE PUSH1 0x20 PUSH1 0x0 KECCAK256 SWAP1 JUMPDEST DUP2 SLOAD DUP2 MSTORE SWAP1 PUSH1 0x1 ADD SWAP1 PUSH1 0x20 ADD DUP1 DUP4 GT PUSH2 0x96A JUMPI DUP3 SWAP1 SUB PUSH1 0x1F AND DUP3 ADD SWAP2 JUMPDEST POP POP POP POP POP DUP2 JUMP JUMPDEST PUSH1 0x0 DUP1 SLOAD SWAP1 PUSH2 0x100 EXP SWAP1 DIV PUSH20 0xFFFFFFFFFFFFFFFFFFFFFFFFFFFFFFFFFFFFFFFF AND DUP2 JUMP JUMPDEST PUSH1 0x60 PUSH1 0x0 DUP1 PUSH1 0x2 DUP5 PUSH1 0x40 MLOAD PUSH2 0x9C8 SWAP2 SWAP1 PUSH2 0x1782 JUMP JUMPDEST SWAP1 DUP2 MSTORE PUSH1 0x20 ADD PUSH1 0x40 MLOAD DUP1 SWAP2 SUB SWAP1 KECCAK256 SWAP1 POP DUP1 PUSH1 0x1 ADD DUP2 PUSH1 0x5 ADD PUSH1 0x0 SWAP1 SLOAD SWAP1 PUSH2 0x100 EXP SWAP1 DIV PUSH8 0xFFFFFFFFFFFFFFFF AND DUP2 DUP1 SLOAD PUSH2 0xA01 SWAP1 PUSH2 0x152E JUMP JUMPDEST DUP1 PUSH1 0x1F ADD PUSH1 0x20 DUP1 SWAP2 DIV MUL PUSH1 0x20 ADD PUSH1 0x40 MLOAD SWAP1 DUP2 ADD PUSH1 0x40 MSTORE DUP1 SWAP3 SWAP2 SWAP1 DUP2 DUP2 MSTORE PUSH1 0x20 ADD DUP3 DUP1 SLOAD PUSH2 0xA2D SWAP1 PUSH2 0x152E JUMP JUMPDEST DUP1 ISZERO PUSH2 0xA7A JUMPI DUP1 PUSH1 0x1F LT PUSH2 0xA4F JUMPI PUSH2 0x100 DUP1 DUP4 SLOAD DIV MUL DUP4 MSTORE SWAP2 PUSH1 0x20 ADD SWAP2 PUSH2 0xA7A JUMP JUMPDEST DUP3 ADD SWAP2 SWAP1 PUSH1 0x0 MSTORE PUSH1 0x20 PUSH1 0x0 KECCAK256 SWAP1 JUMPDEST DUP2 SLOAD DUP2 MSTORE SWAP1 PUSH1 0x1 ADD SWAP1 PUSH1 0x20 ADD DUP1 DUP4 GT PUSH2 0xA5D JUMPI DUP3 SWAP1 SUB PUSH1 0x1F AND DUP3 ADD SWAP2 JUMPDEST POP POP POP POP POP SWAP2 POP SWAP3 POP SWAP3 POP POP SWAP2 POP SWAP2 JUMP JUMPDEST PUSH1 0x3 PUSH1 0x0 CALLER PUSH20 0xFFFFFFFFFFFFFFFFFFFFFFFFFFFFFFFFFFFFFFFF AND PUSH20 0xFFFFFFFFFFFFFFFFFFFFFFFFFFFFFFFFFFFFFFFF AND DUP2 MSTORE PUSH1 0x20 ADD SWAP1 DUP2 MSTORE PUSH1 0x20 ADD PUSH1 0x0 KECCAK256 PUSH1 0x0 SWAP1 SLOAD SWAP1 PUSH2 0x100 EXP SWAP1 DIV PUSH1 0xFF AND PUSH2 0xB17 JUMPI PUSH1 0x40 MLOAD PUSH32 0x8C379A000000000000000000000000000000000000000000000000000000000 DUP2 MSTORE PUSH1 0x4 ADD PUSH2 0xB0E SWAP1 PUSH2 0x180B JUMP JUMPDEST PUSH1 0x40 MLOAD DUP1 SWAP2 SUB SWAP1 REVERT JUMPDEST PUSH1 0x40 MLOAD DUP1 PUSH1 0xE0 ADD PUSH1 0x40 MSTORE DUP1 DUP8 DUP2 MSTORE PUSH1 0x20 ADD DUP7 DUP2 MSTORE PUSH1 0x20 ADD DUP6 DUP2 MSTORE PUSH1 0x20 ADD DUP5 PUSH20 0xFFFFFFFFFFFFFFFFFFFFFFFFFFFFFFFFFFFFFFFF AND DUP2 MSTORE PUSH1 0x20 ADD CALLER PUSH20 0xFFFFFFFFFFFFFFFFFFFFFFFFFFFFFFFFFFFFFFFF AND DUP2 MSTORE PUSH1 0x20 ADD DUP4 PUSH8 0xFFFFFFFFFFFFFFFF AND DUP2 MSTORE PUSH1 0x20 ADD DUP3 PUSH8 0xFFFFFFFFFFFFFFFF AND DUP2 MSTORE POP PUSH1 0x2 DUP8 PUSH1 0x40 MLOAD PUSH2 0xB9A SWAP2 SWAP1 PUSH2 0x1782 JUMP JUMPDEST SWAP1 DUP2 MSTORE PUSH1 0x20 ADD PUSH1 0x40 MLOAD DUP1 SWAP2 SUB SWAP1 KECCAK256 PUSH1 0x0 DUP3 ADD MLOAD DUP2 PUSH1 0x0 ADD SWAP1 DUP2 PUSH2 0xBBD SWAP2 SWAP1 PUSH2 0x19C2 JUMP JUMPDEST POP PUSH1 0x20 DUP3 ADD MLOAD DUP2 PUSH1 0x1 ADD SWAP1 DUP2 PUSH2 0xBD3 SWAP2 SWAP1 PUSH2 0x19C2 JUMP JUMPDEST POP PUSH1 0x40 DUP3 ADD MLOAD DUP2 PUSH1 0x2 ADD SWAP1 DUP2 PUSH2 0xBE9 SWAP2 SWAP1 PUSH2 0x19C2 JUMP JUMPDEST POP PUSH1 0x60 DUP3 ADD MLOAD DUP2 PUSH1 0x3 ADD PUSH1 0x0 PUSH2 0x100 EXP DUP2 SLOAD DUP2 PUSH20 0xFFFFFFFFFFFFFFFFFFFFFFFFFFFFFFFFFFFFFFFF MUL NOT AND SWAP1 DUP4 PUSH20 0xFFFFFFFFFFFFFFFFFFFFFFFFFFFFFFFFFFFFFFFF AND MUL OR SWAP1 SSTORE POP PUSH1 0x80 DUP3 ADD MLOAD DUP2 PUSH1 0x4 ADD PUSH1 0x0 PUSH2 0x100 EXP DUP2 SLOAD DUP2 PUSH20 0xFFFFFFFFFFFFFFFFFFFFFFFFFFFFFFFFFFFFFFFF MUL NOT AND SWAP1 DUP4 PUSH20 0xFFFFFFFFFFFFFFFFFFFFFFFFFFFFFFFFFFFFFFFF AND MUL OR SWAP1 SSTORE POP PUSH1 0xA0 DUP3 ADD MLOAD DUP2 PUSH1 0x4 ADD PUSH1 0x14 PUSH2 0x100 EXP DUP2 SLOAD DUP2 PUSH8 0xFFFFFFFFFFFFFFFF MUL NOT AND SWAP1 DUP4 PUSH8 0xFFFFFFFFFFFFFFFF AND MUL OR SWAP1 SSTORE POP PUSH1 0xC0 DUP3 ADD MLOAD DUP2 PUSH1 0x5 ADD PUSH1 0x0 PUSH2 0x100 EXP DUP2 SLOAD DUP2 PUSH8 0xFFFFFFFFFFFFFFFF MUL NOT AND SWAP1 DUP4 PUSH8 0xFFFFFFFFFFFFFFFF AND MUL OR SWAP1 SSTORE POP SWAP1 POP POP PUSH1 0x1 DUP7 SWAP1 DUP1 PUSH1 0x1 DUP2 SLOAD ADD DUP1 DUP3 SSTORE DUP1 SWAP2 POP POP PUSH1 0x1 SWAP1 SUB SWAP1 PUSH1 0x0 MSTORE PUSH1 0x20 PUSH1 0x0 KECCAK256 ADD PUSH1 0x0 SWAP1 SWAP2 SWAP1 SWAP2 SWAP1 SWAP2 POP SWAP1 DUP2 PUSH2 0xD0D SWAP2 SWAP1 PUSH2 0x19C2 JUMP JUMPDEST POP POP POP POP POP POP POP JUMP JUMPDEST PUSH1 0x40 MLOAD DUP1 PUSH1 0xE0 ADD PUSH1 0x40 MSTORE DUP1 PUSH1 0x60 DUP2 MSTORE PUSH1 0x20 ADD PUSH1 0x60 DUP2 MSTORE PUSH1 0x20 ADD PUSH1 0x60 DUP2 MSTORE PUSH1 0x20 ADD PUSH1 0x0 PUSH20 0xFFFFFFFFFFFFFFFFFFFFFFFFFFFFFFFFFFFFFFFF AND DUP2 MSTORE PUSH1 0x20 ADD PUSH1 0x0 PUSH20 0xFFFFFFFFFFFFFFFFFFFFFFFFFFFFFFFFFFFFFFFF AND DUP2 MSTORE PUSH1 0x20 ADD PUSH1 0x0 PUSH8 0xFFFFFFFFFFFFFFFF AND DUP2 MSTORE PUSH1 0x20 ADD PUSH1 0x0 PUSH8 0xFFFFFFFFFFFFFFFF AND DUP2 MSTORE POP SWAP1 JUMP JUMPDEST PUSH1 0x0 PUSH1 0x40 MLOAD SWAP1 POP SWAP1 JUMP JUMPDEST PUSH1 0x0 DUP1 REVERT JUMPDEST PUSH1 0x0 DUP1 REVERT JUMPDEST PUSH1 0x0 PUSH20 0xFFFFFFFFFFFFFFFFFFFFFFFFFFFFFFFFFFFFFFFF DUP3 AND SWAP1 POP SWAP2 SWAP1 POP JUMP JUMPDEST PUSH1 0x0 PUSH2 0xDD2 DUP3 PUSH2 0xDA7 JUMP JUMPDEST SWAP1 POP SWAP2 SWAP1 POP JUMP JUMPDEST PUSH2 0xDE2 DUP2 PUSH2 0xDC7 JUMP JUMPDEST DUP2 EQ PUSH2 0xDED JUMPI PUSH1 0x0 DUP1 REVERT JUMPDEST POP JUMP JUMPDEST PUSH1 0x0 DUP2 CALLDATALOAD SWAP1 POP PUSH2 0xDFF DUP2 PUSH2 0xDD9 JUMP JUMPDEST SWAP3 SWAP2 POP POP JUMP JUMPDEST PUSH1 0x0 PUSH1 0x20 DUP3 DUP5 SUB SLT ISZERO PUSH2 0xE1B JUMPI PUSH2 0xE1A PUSH2 0xD9D JUMP JUMPDEST JUMPDEST PUSH1 0x0 PUSH2 0xE29 DUP5 DUP3 DUP6 ADD PUSH2 0xDF0 JUMP JUMPDEST SWAP2 POP POP SWAP3 SWAP2 POP POP JUMP JUMPDEST PUSH1 0x0 DUP2 ISZERO ISZERO SWAP1 POP SWAP2 SWAP1 POP JUMP JUMPDEST PUSH2 0xE47 DUP2 PUSH2 0xE32 JUMP JUMPDEST DUP3 MSTORE POP POP JUMP JUMPDEST PUSH1 0x0 PUSH1 0x20 DUP3 ADD SWAP1 POP PUSH2 0xE62 PUSH1 0x0 DUP4 ADD DUP5 PUSH2 0xE3E JUMP JUMPDEST SWAP3 SWAP2 POP POP JUMP JUMPDEST PUSH1 0x0 DUP1 REVERT JUMPDEST PUSH1 0x0 DUP1 REVERT JUMPDEST PUSH1 0x0 PUSH1 0x1F NOT PUSH1 0x1F DUP4 ADD AND SWAP1 POP SWAP2 SWAP1 POP JUMP JUMPDEST PUSH32 0x4E487B7100000000000000000000000000000000000000000000000000000000 PUSH1 0x0 MSTORE PUSH1 0x41 PUSH1 0x4 MSTORE PUSH1 0x24 PUSH1 0x0 REVERT JUMPDEST PUSH2 0xEBB DUP3 PUSH2 0xE72 JUMP JUMPDEST DUP2 ADD DUP2 DUP2 LT PUSH8 0xFFFFFFFFFFFFFFFF DUP3 GT OR ISZERO PUSH2 0xEDA JUMPI PUSH2 0xED9 PUSH2 0xE83 JUMP JUMPDEST JUMPDEST DUP1 PUSH1 0x40 MSTORE POP POP POP JUMP JUMPDEST PUSH1 0x0 PUSH2 0xEED PUSH2 0xD93 JUMP JUMPDEST SWAP1 POP PUSH2 0xEF9 DUP3 DUP3 PUSH2 0xEB2 JUMP JUMPDEST SWAP2 SWAP1 POP JUMP JUMPDEST PUSH1 0x0 PUSH8 0xFFFFFFFFFFFFFFFF DUP3 GT ISZERO PUSH2 0xF19 JUMPI PUSH2 0xF18 PUSH2 0xE83 JUMP JUMPDEST JUMPDEST PUSH2 0xF22 DUP3 PUSH2 0xE72 JUMP JUMPDEST SWAP1 POP PUSH1 0x20 DUP2 ADD SWAP1 POP SWAP2 SWAP1 POP JUMP JUMPDEST DUP3 DUP2 DUP4 CALLDATACOPY PUSH1 0x0 DUP4 DUP4 ADD MSTORE POP POP POP JUMP JUMPDEST PUSH1 0x0 PUSH2 0xF51 PUSH2 0xF4C DUP5 PUSH2 0xEFE JUMP JUMPDEST PUSH2 0xEE3 JUMP JUMPDEST SWAP1 POP DUP3 DUP2 MSTORE PUSH1 0x20 DUP2 ADD DUP5 DUP5 DUP5 ADD GT ISZERO PUSH2 0xF6D JUMPI PUSH2 0xF6C PUSH2 0xE6D JUMP JUMPDEST JUMPDEST PUSH2 0xF78 DUP5 DUP3 DUP6 PUSH2 0xF2F JUMP JUMPDEST POP SWAP4 SWAP3 POP POP POP JUMP JUMPDEST PUSH1 0x0 DUP3 PUSH1 0x1F DUP4 ADD SLT PUSH2 0xF95 JUMPI PUSH2 0xF94 PUSH2 0xE68 JUMP JUMPDEST JUMPDEST DUP2 CALLDATALOAD PUSH2 0xFA5 DUP5 DUP3 PUSH1 0x20 DUP7 ADD PUSH2 0xF3E JUMP JUMPDEST SWAP2 POP POP SWAP3 SWAP2 POP POP JUMP JUMPDEST PUSH1 0x0 PUSH1 0x20 DUP3 DUP5 SUB SLT ISZERO PUSH2 0xFC4 JUMPI PUSH2 0xFC3 PUSH2 0xD9D JUMP JUMPDEST JUMPDEST PUSH1 0x0 DUP3 ADD CALLDATALOAD PUSH8 0xFFFFFFFFFFFFFFFF DUP2 GT ISZERO PUSH2 0xFE2 JUMPI PUSH2 0xFE1 PUSH2 0xDA2 JUMP JUMPDEST JUMPDEST PUSH2 0xFEE DUP5 DUP3 DUP6 ADD PUSH2 0xF80 JUMP JUMPDEST SWAP2 POP POP SWAP3 SWAP2 POP POP JUMP JUMPDEST PUSH1 0x0 DUP2 MLOAD SWAP1 POP SWAP2 SWAP1 POP JUMP JUMPDEST PUSH1 0x0 DUP3 DUP3 MSTORE PUSH1 0x20 DUP3 ADD SWAP1 POP SWAP3 SWAP2 POP POP JUMP JUMPDEST PUSH1 0x0 JUMPDEST DUP4 DUP2 LT ISZERO PUSH2 0x1031 JUMPI DUP1 DUP3 ADD MLOAD DUP2 DUP5 ADD MSTORE PUSH1 0x20 DUP2 ADD SWAP1 POP PUSH2 0x1016 JUMP JUMPDEST PUSH1 0x0 DUP5 DUP5 ADD MSTORE POP POP POP POP JUMP JUMPDEST PUSH1 0x0 PUSH2 0x1048 DUP3 PUSH2 0xFF7 JUMP JUMPDEST PUSH2 0x1052 DUP2 DUP6 PUSH2 0x1002 JUMP JUMPDEST SWAP4 POP PUSH2 0x1062 DUP2 DUP6 PUSH1 0x20 DUP7 ADD PUSH2 0x1013 JUMP JUMPDEST PUSH2 0x106B DUP2 PUSH2 0xE72 JUMP JUMPDEST DUP5 ADD SWAP2 POP POP SWAP3 SWAP2 POP POP JUMP JUMPDEST PUSH2 0x107F DUP2 PUSH2 0xDC7 JUMP JUMPDEST DUP3 MSTORE POP POP JUMP JUMPDEST PUSH1 0x0 PUSH8 0xFFFFFFFFFFFFFFFF DUP3 AND SWAP1 POP SWAP2 SWAP1 POP JUMP JUMPDEST PUSH2 0x10A2 DUP2 PUSH2 0x1085 JUMP JUMPDEST DUP3 MSTORE POP POP JUMP JUMPDEST PUSH1 0x0 PUSH1 0xE0 DUP3 ADD SWAP1 POP DUP2 DUP2 SUB PUSH1 0x0 DUP4 ADD MSTORE PUSH2 0x10C2 DUP2 DUP11 PUSH2 0x103D JUMP JUMPDEST SWAP1 POP DUP2 DUP2 SUB PUSH1 0x20 DUP4 ADD MSTORE PUSH2 0x10D6 DUP2 DUP10 PUSH2 0x103D JUMP JUMPDEST SWAP1 POP DUP2 DUP2 SUB PUSH1 0x40 DUP4 ADD MSTORE PUSH2 0x10EA DUP2 DUP9 PUSH2 0x103D JUMP JUMPDEST SWAP1 POP PUSH2 0x10F9 PUSH1 0x60 DUP4 ADD DUP8 PUSH2 0x1076 JUMP JUMPDEST PUSH2 0x1106 PUSH1 0x80 DUP4 ADD DUP7 PUSH2 0x1076 JUMP JUMPDEST PUSH2 0x1113 PUSH1 0xA0 DUP4 ADD DUP6 PUSH2 0x1099 JUMP JUMPDEST PUSH2 0x1120 PUSH1 0xC0 DUP4 ADD DUP5 PUSH2 0x1099 JUMP JUMPDEST SWAP9 SWAP8 POP POP POP POP POP POP POP POP JUMP JUMPDEST PUSH1 0x0 DUP2 MLOAD SWAP1 POP SWAP2 SWAP1 POP JUMP JUMPDEST PUSH1 0x0 DUP3 DUP3 MSTORE PUSH1 0x20 DUP3 ADD SWAP1 POP SWAP3 SWAP2 POP POP JUMP JUMPDEST PUSH1 0x0 DUP2 SWAP1 POP PUSH1 0x20 DUP3 ADD SWAP1 POP SWAP2 SWAP1 POP JUMP JUMPDEST PUSH1 0x0 DUP3 DUP3 MSTORE PUSH1 0x20 DUP3 ADD SWAP1 POP SWAP3 SWAP2 POP POP JUMP JUMPDEST PUSH1 0x0 PUSH2 0x1174 DUP3 PUSH2 0xFF7 JUMP JUMPDEST PUSH2 0x117E DUP2 DUP6 PUSH2 0x1158 JUMP JUMPDEST SWAP4 POP PUSH2 0x118E DUP2 DUP6 PUSH1 0x20 DUP7 ADD PUSH2 0x1013 JUMP JUMPDEST PUSH2 0x1197 DUP2 PUSH2 0xE72 JUMP JUMPDEST DUP5 ADD SWAP2 POP POP SWAP3 SWAP2 POP POP JUMP JUMPDEST PUSH2 0x11AB DUP2 PUSH2 0xDC7 JUMP JUMPDEST DUP3 MSTORE POP POP JUMP JUMPDEST PUSH2 0x11BA DUP2 PUSH2 0x1085 JUMP JUMPDEST DUP3 MSTORE POP POP JUMP JUMPDEST PUSH1 0x0 PUSH1 0xE0 DUP4 ADD PUSH1 0x0 DUP4 ADD MLOAD DUP5 DUP3 SUB PUSH1 0x0 DUP7 ADD MSTORE PUSH2 0x11DD DUP3 DUP3 PUSH2 0x1169 JUMP JUMPDEST SWAP2 POP POP PUSH1 0x20 DUP4 ADD MLOAD DUP5 DUP3 SUB PUSH1 0x20 DUP7 ADD MSTORE PUSH2 0x11F7 DUP3 DUP3 PUSH2 0x1169 JUMP JUMPDEST SWAP2 POP POP PUSH1 0x40 DUP4 ADD MLOAD DUP5 DUP3 SUB PUSH1 0x40 DUP7 ADD MSTORE PUSH2 0x1211 DUP3 DUP3 PUSH2 0x1169 JUMP JUMPDEST SWAP2 POP POP PUSH1 0x60 DUP4 ADD MLOAD PUSH2 0x1226 PUSH1 0x60 DUP7 ADD DUP3 PUSH2 0x11A2 JUMP JUMPDEST POP PUSH1 0x80 DUP4 ADD MLOAD PUSH2 0x1239 PUSH1 0x80 DUP7 ADD DUP3 PUSH2 0x11A2 JUMP JUMPDEST POP PUSH1 0xA0 DUP4 ADD MLOAD PUSH2 0x124C PUSH1 0xA0 DUP7 ADD DUP3 PUSH2 0x11B1 JUMP JUMPDEST POP PUSH1 0xC0 DUP4 ADD MLOAD PUSH2 0x125F PUSH1 0xC0 DUP7 ADD DUP3 PUSH2 0x11B1 JUMP JUMPDEST POP DUP1 SWAP2 POP POP SWAP3 SWAP2 POP POP JUMP JUMPDEST PUSH1 0x0 PUSH2 0x1276 DUP4 DUP4 PUSH2 0x11C0 JUMP JUMPDEST SWAP1 POP SWAP3 SWAP2 POP POP JUMP JUMPDEST PUSH1 0x0 PUSH1 0x20 DUP3 ADD SWAP1 POP SWAP2 SWAP1 POP JUMP JUMPDEST PUSH1 0x0 PUSH2 0x1296 DUP3 PUSH2 0x112C JUMP JUMPDEST PUSH2 0x12A0 DUP2 DUP6 PUSH2 0x1137 JUMP JUMPDEST SWAP4 POP DUP4 PUSH1 0x20 DUP3 MUL DUP6 ADD PUSH2 0x12B2 DUP6 PUSH2 0x1148 JUMP JUMPDEST DUP1 PUSH1 0x0 JUMPDEST DUP6 DUP2 LT ISZERO PUSH2 0x12EE JUMPI DUP5 DUP5 SUB DUP10 MSTORE DUP2 MLOAD PUSH2 0x12CF DUP6 DUP3 PUSH2 0x126A JUMP JUMPDEST SWAP5 POP PUSH2 0x12DA DUP4 PUSH2 0x127E JUMP JUMPDEST SWAP3 POP PUSH1 0x20 DUP11 ADD SWAP10 POP POP PUSH1 0x1 DUP2 ADD SWAP1 POP PUSH2 0x12B6 JUMP JUMPDEST POP DUP3 SWAP8 POP DUP8 SWAP6 POP POP POP POP POP POP SWAP3 SWAP2 POP POP JUMP JUMPDEST PUSH1 0x0 PUSH1 0x20 DUP3 ADD SWAP1 POP DUP2 DUP2 SUB PUSH1 0x0 DUP4 ADD MSTORE PUSH2 0x131A DUP2 DUP5 PUSH2 0x128B JUMP JUMPDEST SWAP1 POP SWAP3 SWAP2 POP POP JUMP JUMPDEST PUSH1 0x0 DUP2 SWAP1 POP SWAP2 SWAP1 POP JUMP JUMPDEST PUSH2 0x1335 DUP2 PUSH2 0x1322 JUMP JUMPDEST DUP2 EQ PUSH2 0x1340 JUMPI PUSH1 0x0 DUP1 REVERT JUMPDEST POP JUMP JUMPDEST PUSH1 0x0 DUP2 CALLDATALOAD SWAP1 POP PUSH2 0x1352 DUP2 PUSH2 0x132C JUMP JUMPDEST SWAP3 SWAP2 POP POP JUMP JUMPDEST PUSH1 0x0 PUSH1 0x20 DUP3 DUP5 SUB SLT ISZERO PUSH2 0x136E JUMPI PUSH2 0x136D PUSH2 0xD9D JUMP JUMPDEST JUMPDEST PUSH1 0x0 PUSH2 0x137C DUP5 DUP3 DUP6 ADD PUSH2 0x1343 JUMP JUMPDEST SWAP2 POP POP SWAP3 SWAP2 POP POP JUMP JUMPDEST PUSH1 0x0 PUSH1 0x20 DUP3 ADD SWAP1 POP DUP2 DUP2 SUB PUSH1 0x0 DUP4 ADD MSTORE PUSH2 0x139F DUP2 DUP5 PUSH2 0x103D JUMP JUMPDEST SWAP1 POP SWAP3 SWAP2 POP POP JUMP JUMPDEST PUSH1 0x0 PUSH1 0x20 DUP3 ADD SWAP1 POP PUSH2 0x13BC PUSH1 0x0 DUP4 ADD DUP5 PUSH2 0x1076 JUMP JUMPDEST SWAP3 SWAP2 POP POP JUMP JUMPDEST PUSH1 0x0 PUSH1 0x40 DUP3 ADD SWAP1 POP DUP2 DUP2 SUB PUSH1 0x0 DUP4 ADD MSTORE PUSH2 0x13DC DUP2 DUP6 PUSH2 0x103D JUMP JUMPDEST SWAP1 POP PUSH2 0x13EB PUSH1 0x20 DUP4 ADD DUP5 PUSH2 0x1099 JUMP JUMPDEST SWAP4 SWAP3 POP POP POP JUMP JUMPDEST PUSH2 0x13FB DUP2 PUSH2 0x1085 JUMP JUMPDEST DUP2 EQ PUSH2 0x1406 JUMPI PUSH1 0x0 DUP1 REVERT JUMPDEST POP JUMP JUMPDEST PUSH1 0x0 DUP2 CALLDATALOAD SWAP1 POP PUSH2 0x1418 DUP2 PUSH2 0x13F2 JUMP JUMPDEST SWAP3 SWAP2 POP POP JUMP JUMPDEST PUSH1 0x0 DUP1 PUSH1 0x0 DUP1 PUSH1 0x0 DUP1 PUSH1 0xC0 DUP8 DUP10 SUB SLT ISZERO PUSH2 0x143B JUMPI PUSH2 0x143A PUSH2 0xD9D JUMP JUMPDEST JUMPDEST PUSH1 0x0 DUP8 ADD CALLDATALOAD PUSH8 0xFFFFFFFFFFFFFFFF DUP2 GT ISZERO PUSH2 0x1459 JUMPI PUSH2 0x1458 PUSH2 0xDA2 JUMP JUMPDEST JUMPDEST PUSH2 0x1465 DUP10 DUP3 DUP11 ADD PUSH2 0xF80 JUMP JUMPDEST SWAP7 POP POP PUSH1 0x20 DUP8 ADD CALLDATALOAD PUSH8 0xFFFFFFFFFFFFFFFF DUP2 GT ISZERO PUSH2 0x1486 JUMPI PUSH2 0x1485 PUSH2 0xDA2 JUMP JUMPDEST JUMPDEST PUSH2 0x1492 DUP10 DUP3 DUP11 ADD PUSH2 0xF80 JUMP JUMPDEST SWAP6 POP POP PUSH1 0x40 DUP8 ADD CALLDATALOAD PUSH8 0xFFFFFFFFFFFFFFFF DUP2 GT ISZERO PUSH2 0x14B3 JUMPI PUSH2 0x14B2 PUSH2 0xDA2 JUMP JUMPDEST JUMPDEST PUSH2 0x14BF DUP10 DUP3 DUP11 ADD PUSH2 0xF80 JUMP JUMPDEST SWAP5 POP POP PUSH1 0x60 PUSH2 0x14D0 DUP10 DUP3 DUP11 ADD PUSH2 0xDF0 JUMP JUMPDEST SWAP4 POP POP PUSH1 0x80 PUSH2 0x14E1 DUP10 DUP3 DUP11 ADD PUSH2 0x1409 JUMP JUMPDEST SWAP3 POP POP PUSH1 0xA0 PUSH2 0x14F2 DUP10 DUP3 DUP11 ADD PUSH2 0x1409 JUMP JUMPDEST SWAP2 POP POP SWAP3 SWAP6 POP SWAP3 SWAP6 POP SWAP3 SWAP6 JUMP JUMPDEST PUSH32 0x4E487B7100000000000000000000000000000000000000000000000000000000 PUSH1 0x0 MSTORE PUSH1 0x22 PUSH1 0x4 MSTORE PUSH1 0x24 PUSH1 0x0 REVERT JUMPDEST PUSH1 0x0 PUSH1 0x2 DUP3 DIV SWAP1 POP PUSH1 0x1 DUP3 AND DUP1 PUSH2 0x1546 JUMPI PUSH1 0x7F DUP3 AND SWAP2 POP JUMPDEST PUSH1 0x20 DUP3 LT DUP2 SUB PUSH2 0x1559 JUMPI PUSH2 0x1558 PUSH2 0x14FF JUMP JUMPDEST JUMPDEST POP SWAP2 SWAP1 POP JUMP JUMPDEST PUSH32 0x4F6E6C7920746865206261736520636F6D70616E792077616C6C65742063616E PUSH1 0x0 DUP3 ADD MSTORE PUSH32 0x2063616C6C20746869732066756E6374696F6E00000000000000000000000000 PUSH1 0x20 DUP3 ADD MSTORE POP JUMP JUMPDEST PUSH1 0x0 PUSH2 0x15BB PUSH1 0x33 DUP4 PUSH2 0x1002 JUMP JUMPDEST SWAP2 POP PUSH2 0x15C6 DUP3 PUSH2 0x155F JUMP JUMPDEST PUSH1 0x40 DUP3 ADD SWAP1 POP SWAP2 SWAP1 POP JUMP JUMPDEST PUSH1 0x0 PUSH1 0x20 DUP3 ADD SWAP1 POP DUP2 DUP2 SUB PUSH1 0x0 DUP4 ADD MSTORE PUSH2 0x15EA DUP2 PUSH2 0x15AE JUMP JUMPDEST SWAP1 POP SWAP2 SWAP1 POP JUMP JUMPDEST PUSH32 0x4E487B7100000000000000000000000000000000000000000000000000000000 PUSH1 0x0 MSTORE PUSH1 0x32 PUSH1 0x4 MSTORE PUSH1 0x24 PUSH1 0x0 REVERT JUMPDEST PUSH1 0x0 DUP2 SWAP1 POP SWAP3 SWAP2 POP POP JUMP JUMPDEST PUSH1 0x0 DUP2 SWAP1 POP DUP2 PUSH1 0x0 MSTORE PUSH1 0x20 PUSH1 0x0 KECCAK256 SWAP1 POP SWAP2 SWAP1 POP JUMP JUMPDEST PUSH1 0x0 DUP2 SLOAD PUSH2 0x164D DUP2 PUSH2 0x152E JUMP JUMPDEST PUSH2 0x1657 DUP2 DUP7 PUSH2 0x1620 JUMP JUMPDEST SWAP5 POP PUSH1 0x1 DUP3 AND PUSH1 0x0 DUP2 EQ PUSH2 0x1672 JUMPI PUSH1 0x1 DUP2 EQ PUSH2 0x1687 JUMPI PUSH2 0x16BA JUMP JUMPDEST PUSH1 0xFF NOT DUP4 AND DUP7 MSTORE DUP2 ISZERO ISZERO DUP3 MUL DUP7 ADD SWAP4 POP PUSH2 0x16BA JUMP JUMPDEST PUSH2 0x1690 DUP6 PUSH2 0x162B JUMP JUMPDEST PUSH1 0x0 JUMPDEST DUP4 DUP2 LT ISZERO PUSH2 0x16B2 JUMPI DUP2 SLOAD DUP2 DUP10 ADD MSTORE PUSH1 0x1 DUP3 ADD SWAP2 POP PUSH1 0x20 DUP2 ADD SWAP1 POP PUSH2 0x1693 JUMP JUMPDEST DUP4 DUP9 ADD SWAP6 POP POP POP JUMPDEST POP POP POP SWAP3 SWAP2 POP POP JUMP JUMPDEST PUSH1 0x0 PUSH2 0x16CF DUP3 DUP5 PUSH2 0x1640 JUMP JUMPDEST SWAP2 POP DUP2 SWAP1 POP SWAP3 SWAP2 POP POP JUMP JUMPDEST PUSH32 0x4E487B7100000000000000000000000000000000000000000000000000000000 PUSH1 0x0 MSTORE PUSH1 0x11 PUSH1 0x4 MSTORE PUSH1 0x24 PUSH1 0x0 REVERT JUMPDEST PUSH1 0x0 PUSH2 0x1714 DUP3 PUSH2 0x1322 JUMP JUMPDEST SWAP2 POP PUSH32 0xFFFFFFFFFFFFFFFFFFFFFFFFFFFFFFFFFFFFFFFFFFFFFFFFFFFFFFFFFFFFFFFF DUP3 SUB PUSH2 0x1746 JUMPI PUSH2 0x1745 PUSH2 0x16DA JUMP JUMPDEST JUMPDEST PUSH1 0x1 DUP3 ADD SWAP1 POP SWAP2 SWAP1 POP JUMP JUMPDEST PUSH1 0x0 PUSH2 0x175C DUP3 PUSH2 0xFF7 JUMP JUMPDEST PUSH2 0x1766 DUP2 DUP6 PUSH2 0x1620 JUMP JUMPDEST SWAP4 POP PUSH2 0x1776 DUP2 DUP6 PUSH1 0x20 DUP7 ADD PUSH2 0x1013 JUMP JUMPDEST DUP1 DUP5 ADD SWAP2 POP POP SWAP3 SWAP2 POP POP JUMP JUMPDEST PUSH1 0x0 PUSH2 0x178E DUP3 DUP5 PUSH2 0x1751 JUMP JUMPDEST SWAP2 POP DUP2 SWAP1 POP SWAP3 SWAP2 POP POP JUMP JUMPDEST PUSH32 0x4F6E6C7920617574686F72697A656420636F6D70616E792077616C6C65747320 PUSH1 0x0 DUP3 ADD MSTORE PUSH32 0x63616E2063616C6C20746869732066756E6374696F6E00000000000000000000 PUSH1 0x20 DUP3 ADD MSTORE POP JUMP JUMPDEST PUSH1 0x0 PUSH2 0x17F5 PUSH1 0x36 DUP4 PUSH2 0x1002 JUMP JUMPDEST SWAP2 POP PUSH2 0x1800 DUP3 PUSH2 0x1799 JUMP JUMPDEST PUSH1 0x40 DUP3 ADD SWAP1 POP SWAP2 SWAP1 POP JUMP JUMPDEST PUSH1 0x0 PUSH1 0x20 DUP3 ADD SWAP1 POP DUP2 DUP2 SUB PUSH1 0x0 DUP4 ADD MSTORE PUSH2 0x1824 DUP2 PUSH2 0x17E8 JUMP JUMPDEST SWAP1 POP SWAP2 SWAP1 POP JUMP JUMPDEST PUSH1 0x0 PUSH1 0x20 PUSH1 0x1F DUP4 ADD DIV SWAP1 POP SWAP2 SWAP1 POP JUMP JUMPDEST PUSH1 0x0 DUP3 DUP3 SHL SWAP1 POP SWAP3 SWAP2 POP POP JUMP JUMPDEST PUSH1 0x0 PUSH1 0x8 DUP4 MUL PUSH2 0x1878 PUSH32 0xFFFFFFFFFFFFFFFFFFFFFFFFFFFFFFFFFFFFFFFFFFFFFFFFFFFFFFFFFFFFFFFF DUP3 PUSH2 0x183B JUMP JUMPDEST PUSH2 0x1882 DUP7 DUP4 PUSH2 0x183B JUMP JUMPDEST SWAP6 POP DUP1 NOT DUP5 AND SWAP4 POP DUP1 DUP7 AND DUP5 OR SWAP3 POP POP POP SWAP4 SWAP3 POP POP POP JUMP JUMPDEST PUSH1 0x0 DUP2 SWAP1 POP SWAP2 SWAP1 POP JUMP JUMPDEST PUSH1 0x0 PUSH2 0x18BF PUSH2 0x18BA PUSH2 0x18B5 DUP5 PUSH2 0x1322 JUMP JUMPDEST PUSH2 0x189A JUMP JUMPDEST PUSH2 0x1322 JUMP JUMPDEST SWAP1 POP SWAP2 SWAP1 POP JUMP JUMPDEST PUSH1 0x0 DUP2 SWAP1 POP SWAP2 SWAP1 POP JUMP JUMPDEST PUSH2 0x18D9 DUP4 PUSH2 0x18A4 JUMP JUMPDEST PUSH2 0x18ED PUSH2 0x18E5 DUP3 PUSH2 0x18C6 JUMP JUMPDEST DUP5 DUP5 SLOAD PUSH2 0x1848 JUMP JUMPDEST DUP3 SSTORE POP POP POP POP JUMP JUMPDEST PUSH1 0x0 SWAP1 JUMP JUMPDEST PUSH2 0x1902 PUSH2 0x18F5 JUMP JUMPDEST PUSH2 0x190D DUP2 DUP5 DUP5 PUSH2 0x18D0 JUMP JUMPDEST POP POP POP JUMP JUMPDEST JUMPDEST DUP2 DUP2 LT ISZERO PUSH2 0x1931 JUMPI PUSH2 0x1926 PUSH1 0x0 DUP3 PUSH2 0x18FA JUMP JUMPDEST PUSH1 0x1 DUP2 ADD SWAP1 POP PUSH2 0x1913 JUMP JUMPDEST POP POP JUMP JUMPDEST PUSH1 0x1F DUP3 GT ISZERO PUSH2 0x1976 JUMPI PUSH2 0x1947 DUP2 PUSH2 0x162B JUMP JUMPDEST PUSH2 0x1950 DUP5 PUSH2 0x182B JUMP JUMPDEST DUP2 ADD PUSH1 0x20 DUP6 LT ISZERO PUSH2 0x195F JUMPI DUP2 SWAP1 POP JUMPDEST PUSH2 0x1973 PUSH2 0x196B DUP6 PUSH2 0x182B JUMP JUMPDEST DUP4 ADD DUP3 PUSH2 0x1912 JUMP JUMPDEST POP POP JUMPDEST POP POP POP JUMP JUMPDEST PUSH1 0x0 DUP3 DUP3 SHR SWAP1 POP SWAP3 SWAP2 POP POP JUMP JUMPDEST PUSH1 0x0 PUSH2 0x1999 PUSH1 0x0 NOT DUP5 PUSH1 0x8 MUL PUSH2 0x197B JUMP JUMPDEST NOT DUP1 DUP4 AND SWAP2 POP POP SWAP3 SWAP2 POP POP JUMP JUMPDEST PUSH1 0x0 PUSH2 0x19B2 DUP4 DUP4 PUSH2 0x1988 JUMP JUMPDEST SWAP2 POP DUP3 PUSH1 0x2 MUL DUP3 OR SWAP1 POP SWAP3 SWAP2 POP POP JUMP JUMPDEST PUSH2 0x19CB DUP3 PUSH2 0xFF7 JUMP JUMPDEST PUSH8 0xFFFFFFFFFFFFFFFF DUP2 GT ISZERO PUSH2 0x19E4 JUMPI PUSH2 0x19E3 PUSH2 0xE83 JUMP JUMPDEST JUMPDEST PUSH2 0x19EE DUP3 SLOAD PUSH2 0x152E JUMP JUMPDEST PUSH2 0x19F9 DUP3 DUP3 DUP6 PUSH2 0x1935 JUMP JUMPDEST PUSH1 0x0 PUSH1 0x20 SWAP1 POP PUSH1 0x1F DUP4 GT PUSH1 0x1 DUP2 EQ PUSH2 0x1A2C JUMPI PUSH1 0x0 DUP5 ISZERO PUSH2 0x1A1A JUMPI DUP3 DUP8 ADD MLOAD SWAP1 POP JUMPDEST PUSH2 0x1A24 DUP6 DUP3 PUSH2 0x19A6 JUMP JUMPDEST DUP7 SSTORE POP PUSH2 0x1A8C JUMP JUMPDEST PUSH1 0x1F NOT DUP5 AND PUSH2 0x1A3A DUP7 PUSH2 0x162B JUMP JUMPDEST PUSH1 0x0 JUMPDEST DUP3 DUP2 LT ISZERO PUSH2 0x1A62 JUMPI DUP5 DUP10 ADD MLOAD DUP3 SSTORE PUSH1 0x1 DUP3 ADD SWAP2 POP PUSH1 0x20 DUP6 ADD SWAP5 POP PUSH1 0x20 DUP2 ADD SWAP1 POP PUSH2 0x1A3D JUMP JUMPDEST DUP7 DUP4 LT ISZERO PUSH2 0x1A7F JUMPI DUP5 DUP10 ADD MLOAD PUSH2 0x1A7B PUSH1 0x1F DUP10 AND DUP3 PUSH2 0x1988 JUMP JUMPDEST DUP4 SSTORE POP JUMPDEST PUSH1 0x1 PUSH1 0x2 DUP9 MUL ADD DUP9 SSTORE POP POP POP JUMPDEST POP POP POP POP POP POP JUMP INVALID LOG2 PUSH5 0x6970667358 0x22 SLT KECCAK256 PUSH1 0xBC SDIV 0xD5 PUSH25 0xF141BA6006AEC986F49FE15B22F79D92C4C8CF636F5146C63F DUP7 PUSH22 0x64736F6C634300081300330000000000000000000000 "},"methodIdentifiers":{"addAuthCompany(address)":"35b6c82a","addDomain(string,string,string,address,uint64,uint64)":"ef2bf8b4","authCompanies(address)":"216f4777","baseCompanyWallet()":"658c734a","domainNames(uint256)":"636921cf","domains(string)":"26449235","getAllDomains()":"5a018e6a","getDomain(string)":"ecdd04da"}}}}}