{
  "_format": "hh-sol-artifact-1",
  "contractName": "BlockChain_DNS",
  "sourceName": "contracts/blockchain_contract.sol",
  "abi": [
    {
      "inputs": [],
      "stateMutability": "nonpayable",
      "type": "constructor"
    },
    {
      "inputs": [
        {
          "internalType": "address",
          "name": "wallet",
          "type": "address"
        }
      ],
      "name": "addAuthCompany",
      "outputs": [],
      "stateMutability": "nonpayable",
      "type": "function"
    },
    {
      "inputs": [
        {
          "internalType": "string",
          "name": "domain",
          "type": "string"
        },
        {
          "internalType": "string",
          "name": "ipAddr",
          "type": "string"
        },
        {
          "internalType": "string",
          "name": "ipAddrType",
          "type": "string"
        },
        {
          "internalType": "address",
          "name": "ownerId",
          "type": "address"
        },
        {
          "internalType": "uint64",
          "name": "timestamp",
          "type": "uint64"
        },
        {
          "internalType": "uint64",
          "name": "expiration",
          "type": "uint64"
        }
      ],
      "name": "addDomain",
      "outputs": [
        {
          "components": [
            {
              "internalType": "string",
              "name": "domain",
              "type": "string"
            },
            {
              "internalType": "string",
              "name": "ipAddr",
              "type": "string"
            },
            {
              "internalType": "string",
              "name": "ipAddrType",
              "type": "string"
            },
            {
              "internalType": "address",
              "name": "ownerId",
              "type": "address"
            },
            {
              "internalType": "address",
              "name": "authCompanyId",
              "type": "address"
            },
            {
              "internalType": "uint64",
              "name": "timestamp",
              "type": "uint64"
            },
            {
              "internalType": "uint64",
              "name": "expiration",
              "type": "uint64"
            }
          ],
          "internalType": "struct BlockChain_DNS.Domain",
          "name": "",
          "type": "tuple"
        }
      ],
      "stateMutability": "nonpayable",
      "type": "function"
    },
    {
      "inputs": [
        {
          "internalType": "address",
          "name": "",
          "type": "address"
        }
      ],
      "name": "authCompanies",
      "outputs": [
        {
          "internalType": "bool",
          "name": "",
          "type": "bool"
        }
      ],
      "stateMutability": "view",
      "type": "function"
    },
    {
      "inputs": [],
      "name": "baseCompanyWallet",
      "outputs": [
        {
          "internalType": "address",
          "name": "",
          "type": "address"
        }
      ],
      "stateMutability": "view",
      "type": "function"
    },
    {
      "inputs": [
        {
          "internalType": "string",
          "name": "",
          "type": "string"
        }
      ],
      "name": "domainExists",
      "outputs": [
        {
          "internalType": "bool",
          "name": "",
          "type": "bool"
        }
      ],
      "stateMutability": "view",
      "type": "function"
    },
    {
      "inputs": [
        {
          "internalType": "uint256",
          "name": "",
          "type": "uint256"
        }
      ],
      "name": "domainNames",
      "outputs": [
        {
          "internalType": "string",
          "name": "",
          "type": "string"
        }
      ],
      "stateMutability": "view",
      "type": "function"
    },
    {
      "inputs": [
        {
          "internalType": "string",
          "name": "",
          "type": "string"
        }
      ],
      "name": "domains",
      "outputs": [
        {
          "internalType": "string",
          "name": "domain",
          "type": "string"
        },
        {
          "internalType": "string",
          "name": "ipAddr",
          "type": "string"
        },
        {
          "internalType": "string",
          "name": "ipAddrType",
          "type": "string"
        },
        {
          "internalType": "address",
          "name": "ownerId",
          "type": "address"
        },
        {
          "internalType": "address",
          "name": "authCompanyId",
          "type": "address"
        },
        {
          "internalType": "uint64",
          "name": "timestamp",
          "type": "uint64"
        },
        {
          "internalType": "uint64",
          "name": "expiration",
          "type": "uint64"
        }
      ],
      "stateMutability": "view",
      "type": "function"
    },
    {
      "inputs": [],
      "name": "getAllDomains",
      "outputs": [
        {
          "components": [
            {
              "internalType": "string",
              "name": "domain",
              "type": "string"
            },
            {
              "internalType": "string",
              "name": "ipAddr",
              "type": "string"
            },
            {
              "internalType": "string",
              "name": "ipAddrType",
              "type": "string"
            },
            {
              "internalType": "address",
              "name": "ownerId",
              "type": "address"
            },
            {
              "internalType": "address",
              "name": "authCompanyId",
              "type": "address"
            },
            {
              "internalType": "uint64",
              "name": "timestamp",
              "type": "uint64"
            },
            {
              "internalType": "uint64",
              "name": "expiration",
              "type": "uint64"
            }
          ],
          "internalType": "struct BlockChain_DNS.Domain[]",
          "name": "",
          "type": "tuple[]"
        }
      ],
      "stateMutability": "view",
      "type": "function"
    },
    {
      "inputs": [
        {
          "internalType": "string",
          "name": "domainName",
          "type": "string"
        }
      ],
      "name": "getDomain",
      "outputs": [
        {
          "internalType": "string",
          "name": "",
          "type": "string"
        },
        {
          "internalType": "uint64",
          "name": "expiration",
          "type": "uint64"
        }
      ],
      "stateMutability": "view",
      "type": "function"
    }
  ],
  "bytecode": "0x608060405234801561001057600080fd5b50336000806101000a81548173ffffffffffffffffffffffffffffffffffffffff021916908373ffffffffffffffffffffffffffffffffffffffff1602179055506001600460008060009054906101000a900473ffffffffffffffffffffffffffffffffffffffff1673ffffffffffffffffffffffffffffffffffffffff1673ffffffffffffffffffffffffffffffffffffffff16815260200190815260200160002060006101000a81548160ff021916908315150217905550611f7e806100d96000396000f3fe608060405234801561001057600080fd5b50600436106100935760003560e01c8063636921cf11610066578063636921cf14610138578063658c734a14610168578063c755997414610186578063ecdd04da146101b6578063ef2bf8b4146101e757610093565b8063216f47771461009857806326449235146100c857806335b6c82a146100fe5780635a018e6a1461011a575b600080fd5b6100b260048036038101906100ad91906111ed565b610217565b6040516100bf9190611235565b60405180910390f35b6100e260048036038101906100dd9190611396565b610237565b6040516100f59796959493929190611490565b60405180910390f35b610118600480360381019061011391906111ed565b61048f565b005b610122610578565b60405161012f91906116e8565b60405180910390f35b610152600480360381019061014d9190611740565b610932565b60405161015f919061176d565b60405180910390f35b6101706109de565b60405161017d919061178f565b60405180910390f35b6101a0600480360381019061019b9190611396565b610a02565b6040516101ad9190611235565b60405180910390f35b6101d060048036038101906101cb9190611396565b610a38565b6040516101de9291906117aa565b60405180910390f35b61020160048036038101906101fc9190611806565b610b10565b60405161020e9190611991565b60405180910390f35b60046020528060005260406000206000915054906101000a900460ff1681565b600381805160208101820180518482526020830160208501208183528095505050505050600091509050806000018054610270906119e2565b80601f016020809104026020016040519081016040528092919081815260200182805461029c906119e2565b80156102e95780601f106102be576101008083540402835291602001916102e9565b820191906000526020600020905b8154815290600101906020018083116102cc57829003601f168201915b5050505050908060010180546102fe906119e2565b80601f016020809104026020016040519081016040528092919081815260200182805461032a906119e2565b80156103775780601f1061034c57610100808354040283529160200191610377565b820191906000526020600020905b81548152906001019060200180831161035a57829003601f168201915b50505050509080600201805461038c906119e2565b80601f01602080910402602001604051908101604052809291908181526020018280546103b8906119e2565b80156104055780601f106103da57610100808354040283529160200191610405565b820191906000526020600020905b8154815290600101906020018083116103e857829003601f168201915b5050505050908060030160009054906101000a900473ffffffffffffffffffffffffffffffffffffffff16908060040160009054906101000a900473ffffffffffffffffffffffffffffffffffffffff16908060040160149054906101000a900467ffffffffffffffff16908060050160009054906101000a900467ffffffffffffffff16905087565b60008054906101000a900473ffffffffffffffffffffffffffffffffffffffff1673ffffffffffffffffffffffffffffffffffffffff163373ffffffffffffffffffffffffffffffffffffffff161461051d576040517f08c379a000000000000000000000000000000000000000000000000000000000815260040161051490611a85565b60405180910390fd5b6001600460008373ffffffffffffffffffffffffffffffffffffffff1673ffffffffffffffffffffffffffffffffffffffff16815260200190815260200160002060006101000a81548160ff02191690831515021790555050565b6060600060018054905067ffffffffffffffff81111561059b5761059a61126b565b5b6040519080825280602002602001820160405280156105d457816020015b6105c16110fe565b8152602001906001900390816105b95790505b50905060005b60018054905081101561092a5760006003600183815481106105ff576105fe611aa5565b5b906000526020600020016040516106169190611b77565b90815260200160405180910390209050806040518060e0016040529081600082018054610642906119e2565b80601f016020809104026020016040519081016040528092919081815260200182805461066e906119e2565b80156106bb5780601f10610690576101008083540402835291602001916106bb565b820191906000526020600020905b81548152906001019060200180831161069e57829003601f168201915b505050505081526020016001820180546106d4906119e2565b80601f0160208091040260200160405190810160405280929190818152602001828054610700906119e2565b801561074d5780601f106107225761010080835404028352916020019161074d565b820191906000526020600020905b81548152906001019060200180831161073057829003601f168201915b50505050508152602001600282018054610766906119e2565b80601f0160208091040260200160405190810160405280929190818152602001828054610792906119e2565b80156107df5780601f106107b4576101008083540402835291602001916107df565b820191906000526020600020905b8154815290600101906020018083116107c257829003601f168201915b505050505081526020016003820160009054906101000a900473ffffffffffffffffffffffffffffffffffffffff1673ffffffffffffffffffffffffffffffffffffffff1673ffffffffffffffffffffffffffffffffffffffff1681526020016004820160009054906101000a900473ffffffffffffffffffffffffffffffffffffffff1673ffffffffffffffffffffffffffffffffffffffff1673ffffffffffffffffffffffffffffffffffffffff1681526020016004820160149054906101000a900467ffffffffffffffff1667ffffffffffffffff1667ffffffffffffffff1681526020016005820160009054906101000a900467ffffffffffffffff1667ffffffffffffffff1667ffffffffffffffff168152505083838151811061090b5761090a611aa5565b5b602002602001018190525050808061092290611bbd565b9150506105da565b508091505090565b6001818154811061094257600080fd5b90600052602060002001600091509050805461095d906119e2565b80601f0160208091040260200160405190810160405280929190818152602001828054610989906119e2565b80156109d65780601f106109ab576101008083540402835291602001916109d6565b820191906000526020600020905b8154815290600101906020018083116109b957829003601f168201915b505050505081565b60008054906101000a900473ffffffffffffffffffffffffffffffffffffffff1681565b6002818051602081018201805184825260208301602085012081835280955050505050506000915054906101000a900460ff1681565b6060600080600384604051610a4d9190611c36565b90815260200160405180910390209050806001018160050160009054906101000a900467ffffffffffffffff16818054610a86906119e2565b80601f0160208091040260200160405190810160405280929190818152602001828054610ab2906119e2565b8015610aff5780601f10610ad457610100808354040283529160200191610aff565b820191906000526020600020905b815481529060010190602001808311610ae257829003601f168201915b505050505091509250925050915091565b610b186110fe565b600460003373ffffffffffffffffffffffffffffffffffffffff1673ffffffffffffffffffffffffffffffffffffffff16815260200190815260200160002060009054906101000a900460ff16610ba4576040517f08c379a0000000000000000000000000000000000000000000000000000000008152600401610b9b90611cbf565b60405180910390fd5b6040518060e001604052808881526020018781526020018681526020018573ffffffffffffffffffffffffffffffffffffffff1681526020013373ffffffffffffffffffffffffffffffffffffffff1681526020018467ffffffffffffffff1681526020018367ffffffffffffffff16815250600388604051610c279190611c36565b90815260200160405180910390206000820151816000019081610c4a9190611e76565b506020820151816001019081610c609190611e76565b506040820151816002019081610c769190611e76565b5060608201518160030160006101000a81548173ffffffffffffffffffffffffffffffffffffffff021916908373ffffffffffffffffffffffffffffffffffffffff16021790555060808201518160040160006101000a81548173ffffffffffffffffffffffffffffffffffffffff021916908373ffffffffffffffffffffffffffffffffffffffff16021790555060a08201518160040160146101000a81548167ffffffffffffffff021916908367ffffffffffffffff16021790555060c08201518160050160006101000a81548167ffffffffffffffff021916908367ffffffffffffffff160217905550905050600287604051610d769190611c36565b908152602001604051809103902060009054906101000a900460ff16610e0357600187908060018154018082558091505060019003906000526020600020016000909190919091509081610dca9190611e76565b506001600288604051610ddd9190611c36565b908152602001604051809103902060006101000a81548160ff0219169083151502179055505b600387604051610e139190611c36565b90815260200160405180910390206040518060e0016040529081600082018054610e3c906119e2565b80601f0160208091040260200160405190810160405280929190818152602001828054610e68906119e2565b8015610eb55780601f10610e8a57610100808354040283529160200191610eb5565b820191906000526020600020905b815481529060010190602001808311610e9857829003601f168201915b50505050508152602001600182018054610ece906119e2565b80601f0160208091040260200160405190810160405280929190818152602001828054610efa906119e2565b8015610f475780601f10610f1c57610100808354040283529160200191610f47565b820191906000526020600020905b815481529060010190602001808311610f2a57829003601f168201915b50505050508152602001600282018054610f60906119e2565b80601f0160208091040260200160405190810160405280929190818152602001828054610f8c906119e2565b8015610fd95780601f10610fae57610100808354040283529160200191610fd9565b820191906000526020600020905b815481529060010190602001808311610fbc57829003601f168201915b505050505081526020016003820160009054906101000a900473ffffffffffffffffffffffffffffffffffffffff1673ffffffffffffffffffffffffffffffffffffffff1673ffffffffffffffffffffffffffffffffffffffff1681526020016004820160009054906101000a900473ffffffffffffffffffffffffffffffffffffffff1673ffffffffffffffffffffffffffffffffffffffff1673ffffffffffffffffffffffffffffffffffffffff1681526020016004820160149054906101000a900467ffffffffffffffff1667ffffffffffffffff1667ffffffffffffffff1681526020016005820160009054906101000a900467ffffffffffffffff1667ffffffffffffffff1667ffffffffffffffff168152505090509695505050505050565b6040518060e00160405280606081526020016060815260200160608152602001600073ffffffffffffffffffffffffffffffffffffffff168152602001600073ffffffffffffffffffffffffffffffffffffffff168152602001600067ffffffffffffffff168152602001600067ffffffffffffffff1681525090565b6000604051905090565b600080fd5b600080fd5b600073ffffffffffffffffffffffffffffffffffffffff82169050919050565b60006111ba8261118f565b9050919050565b6111ca816111af565b81146111d557600080fd5b50565b6000813590506111e7816111c1565b92915050565b60006020828403121561120357611202611185565b5b6000611211848285016111d8565b91505092915050565b60008115159050919050565b61122f8161121a565b82525050565b600060208201905061124a6000830184611226565b92915050565b600080fd5b600080fd5b6000601f19601f8301169050919050565b7f4e487b7100000000000000000000000000000000000000000000000000000000600052604160045260246000fd5b6112a38261125a565b810181811067ffffffffffffffff821117156112c2576112c161126b565b5b80604052505050565b60006112d561117b565b90506112e1828261129a565b919050565b600067ffffffffffffffff8211156113015761130061126b565b5b61130a8261125a565b9050602081019050919050565b82818337600083830152505050565b6000611339611334846112e6565b6112cb565b90508281526020810184848401111561135557611354611255565b5b611360848285611317565b509392505050565b600082601f83011261137d5761137c611250565b5b813561138d848260208601611326565b91505092915050565b6000602082840312156113ac576113ab611185565b5b600082013567ffffffffffffffff8111156113ca576113c961118a565b5b6113d684828501611368565b91505092915050565b600081519050919050565b600082825260208201905092915050565b60005b838110156114195780820151818401526020810190506113fe565b60008484015250505050565b6000611430826113df565b61143a81856113ea565b935061144a8185602086016113fb565b6114538161125a565b840191505092915050565b611467816111af565b82525050565b600067ffffffffffffffff82169050919050565b61148a8161146d565b82525050565b600060e08201905081810360008301526114aa818a611425565b905081810360208301526114be8189611425565b905081810360408301526114d28188611425565b90506114e1606083018761145e565b6114ee608083018661145e565b6114fb60a0830185611481565b61150860c0830184611481565b98975050505050505050565b600081519050919050565b600082825260208201905092915050565b6000819050602082019050919050565b600082825260208201905092915050565b600061155c826113df565b6115668185611540565b93506115768185602086016113fb565b61157f8161125a565b840191505092915050565b611593816111af565b82525050565b6115a28161146d565b82525050565b600060e08301600083015184820360008601526115c58282611551565b915050602083015184820360208601526115df8282611551565b915050604083015184820360408601526115f98282611551565b915050606083015161160e606086018261158a565b506080830151611621608086018261158a565b5060a083015161163460a0860182611599565b5060c083015161164760c0860182611599565b508091505092915050565b600061165e83836115a8565b905092915050565b6000602082019050919050565b600061167e82611514565b611688818561151f565b93508360208202850161169a85611530565b8060005b858110156116d657848403895281516116b78582611652565b94506116c283611666565b925060208a0199505060018101905061169e565b50829750879550505050505092915050565b600060208201905081810360008301526117028184611673565b905092915050565b6000819050919050565b61171d8161170a565b811461172857600080fd5b50565b60008135905061173a81611714565b92915050565b60006020828403121561175657611755611185565b5b60006117648482850161172b565b91505092915050565b600060208201905081810360008301526117878184611425565b905092915050565b60006020820190506117a4600083018461145e565b92915050565b600060408201905081810360008301526117c48185611425565b90506117d36020830184611481565b9392505050565b6117e38161146d565b81146117ee57600080fd5b50565b600081359050611800816117da565b92915050565b60008060008060008060c0878903121561182357611822611185565b5b600087013567ffffffffffffffff8111156118415761184061118a565b5b61184d89828a01611368565b965050602087013567ffffffffffffffff81111561186e5761186d61118a565b5b61187a89828a01611368565b955050604087013567ffffffffffffffff81111561189b5761189a61118a565b5b6118a789828a01611368565b94505060606118b889828a016111d8565b93505060806118c989828a016117f1565b92505060a06118da89828a016117f1565b9150509295509295509295565b600060e08301600083015184820360008601526119048282611551565b9150506020830151848203602086015261191e8282611551565b915050604083015184820360408601526119388282611551565b915050606083015161194d606086018261158a565b506080830151611960608086018261158a565b5060a083015161197360a0860182611599565b5060c083015161198660c0860182611599565b508091505092915050565b600060208201905081810360008301526119ab81846118e7565b905092915050565b7f4e487b7100000000000000000000000000000000000000000000000000000000600052602260045260246000fd5b600060028204905060018216806119fa57607f821691505b602082108103611a0d57611a0c6119b3565b5b50919050565b7f4f6e6c7920746865206261736520636f6d70616e792077616c6c65742063616e60008201527f2063616c6c20746869732066756e6374696f6e00000000000000000000000000602082015250565b6000611a6f6033836113ea565b9150611a7a82611a13565b604082019050919050565b60006020820190508181036000830152611a9e81611a62565b9050919050565b7f4e487b7100000000000000000000000000000000000000000000000000000000600052603260045260246000fd5b600081905092915050565b60008190508160005260206000209050919050565b60008154611b01816119e2565b611b0b8186611ad4565b94506001821660008114611b265760018114611b3b57611b6e565b60ff1983168652811515820286019350611b6e565b611b4485611adf565b60005b83811015611b6657815481890152600182019150602081019050611b47565b838801955050505b50505092915050565b6000611b838284611af4565b915081905092915050565b7f4e487b7100000000000000000000000000000000000000000000000000000000600052601160045260246000fd5b6000611bc88261170a565b91507fffffffffffffffffffffffffffffffffffffffffffffffffffffffffffffffff8203611bfa57611bf9611b8e565b5b600182019050919050565b6000611c10826113df565b611c1a8185611ad4565b9350611c2a8185602086016113fb565b80840191505092915050565b6000611c428284611c05565b915081905092915050565b7f4f6e6c7920617574686f72697a656420636f6d70616e792077616c6c6574732060008201527f63616e2063616c6c20746869732066756e6374696f6e00000000000000000000602082015250565b6000611ca96036836113ea565b9150611cb482611c4d565b604082019050919050565b60006020820190508181036000830152611cd881611c9c565b9050919050565b60006020601f8301049050919050565b600082821b905092915050565b600060088302611d2c7fffffffffffffffffffffffffffffffffffffffffffffffffffffffffffffffff82611cef565b611d368683611cef565b95508019841693508086168417925050509392505050565b6000819050919050565b6000611d73611d6e611d698461170a565b611d4e565b61170a565b9050919050565b6000819050919050565b611d8d83611d58565b611da1611d9982611d7a565b848454611cfc565b825550505050565b600090565b611db6611da9565b611dc1818484611d84565b505050565b5b81811015611de557611dda600082611dae565b600181019050611dc7565b5050565b601f821115611e2a57611dfb81611adf565b611e0484611cdf565b81016020851015611e13578190505b611e27611e1f85611cdf565b830182611dc6565b50505b505050565b600082821c905092915050565b6000611e4d60001984600802611e2f565b1980831691505092915050565b6000611e668383611e3c565b9150826002028217905092915050565b611e7f826113df565b67ffffffffffffffff811115611e9857611e9761126b565b5b611ea282546119e2565b611ead828285611de9565b600060209050601f831160018114611ee05760008415611ece578287015190505b611ed88582611e5a565b865550611f40565b601f198416611eee86611adf565b60005b82811015611f1657848901518255600182019150602085019450602081019050611ef1565b86831015611f335784890151611f2f601f891682611e3c565b8355505b6001600288020188555050505b50505050505056fea26469706673582212206e2c89474b5aa57275848a0c46239e06f923b129afa1cfc94e608c9a9dfb2e4a64736f6c63430008130033",
  "linkReferences": {},
  "deployedLinkReferences": {}
}