{
  "_format": "hh-sol-artifact-1",
  "contractName": "BlockChain_DNS",
  "sourceName": "contracts/blockchain_contract.sol",
  "abi": [
    {
      "inputs": [],
      "stateMutability": "nonpayable",
      "type": "constructor"
    },
    {
      "inputs": [
        {
          "internalType": "address",
          "name": "wallet",
          "type": "address"
        }
      ],
      "name": "addAuthCompany",
      "outputs": [],
      "stateMutability": "nonpayable",
      "type": "function"
    },
    {
      "inputs": [
        {
          "internalType": "string",
          "name": "ipAddr",
          "type": "string"
        },
        {
          "internalType": "string",
          "name": "domain",
          "type": "string"
        },
        {
          "internalType": "string",
          "name": "ipAddrType",
          "type": "string"
        },
        {
          "internalType": "uint256",
          "name": "timestamp",
          "type": "uint256"
        },
        {
          "internalType": "uint256",
          "name": "expiration",
          "type": "uint256"
        }
      ],
      "name": "addDomain",
      "outputs": [],
      "stateMutability": "nonpayable",
      "type": "function"
    },
    {
      "inputs": [
        {
          "internalType": "address",
          "name": "",
          "type": "address"
        }
      ],
      "name": "authCompanies",
      "outputs": [
        {
          "internalType": "bool",
          "name": "",
          "type": "bool"
        }
      ],
      "stateMutability": "view",
      "type": "function"
    },
    {
      "inputs": [],
      "name": "baseCompanyWallet",
      "outputs": [
        {
          "internalType": "address",
          "name": "",
          "type": "address"
        }
      ],
      "stateMutability": "view",
      "type": "function"
    },
    {
      "inputs": [
        {
          "internalType": "string",
          "name": "",
          "type": "string"
        }
      ],
      "name": "domains",
      "outputs": [
        {
          "internalType": "string",
          "name": "ipAddr",
          "type": "string"
        },
        {
          "internalType": "string",
          "name": "domain",
          "type": "string"
        },
        {
          "internalType": "string",
          "name": "ipAddrType",
          "type": "string"
        },
        {
          "internalType": "uint256",
          "name": "timestamp",
          "type": "uint256"
        },
        {
          "internalType": "uint256",
          "name": "expiration",
          "type": "uint256"
        }
      ],
      "stateMutability": "view",
      "type": "function"
    },
    {
      "inputs": [],
      "name": "getAllDomains",
      "outputs": [
        {
          "components": [
            {
              "internalType": "string",
              "name": "ipAddr",
              "type": "string"
            },
            {
              "internalType": "string",
              "name": "domain",
              "type": "string"
            },
            {
              "internalType": "string",
              "name": "ipAddrType",
              "type": "string"
            },
            {
              "internalType": "uint256",
              "name": "timestamp",
              "type": "uint256"
            },
            {
              "internalType": "uint256",
              "name": "expiration",
              "type": "uint256"
            }
          ],
          "internalType": "struct BlockChain_DNS.Domain[]",
          "name": "",
          "type": "tuple[]"
        }
      ],
      "stateMutability": "view",
      "type": "function"
    },
    {
      "inputs": [
        {
          "internalType": "string",
          "name": "ipAddr",
          "type": "string"
        }
      ],
      "name": "getDomain",
      "outputs": [
        {
          "internalType": "string",
          "name": "",
          "type": "string"
        },
        {
          "internalType": "string",
          "name": "",
          "type": "string"
        },
        {
          "internalType": "uint256",
          "name": "",
          "type": "uint256"
        },
        {
          "internalType": "uint256",
          "name": "",
          "type": "uint256"
        }
      ],
      "stateMutability": "view",
      "type": "function"
    },
    {
      "inputs": [
        {
          "internalType": "uint256",
          "name": "",
          "type": "uint256"
        }
      ],
      "name": "ipAddresses",
      "outputs": [
        {
          "internalType": "string",
          "name": "",
          "type": "string"
        }
      ],
      "stateMutability": "view",
      "type": "function"
    }
  ],
  "bytecode": "0x608060405234801561001057600080fd5b50336000806101000a81548173ffffffffffffffffffffffffffffffffffffffff021916908373ffffffffffffffffffffffffffffffffffffffff1602179055506001600360008060009054906101000a900473ffffffffffffffffffffffffffffffffffffffff1673ffffffffffffffffffffffffffffffffffffffff1673ffffffffffffffffffffffffffffffffffffffff16815260200190815260200160002060006101000a81548160ff0219169083151502179055506117f1806100d96000396000f3fe608060405234801561001057600080fd5b50600436106100885760003560e01c8063658c734a1161005b578063658c734a1461012b5780639bff40c314610149578063b0dd8b5e14610179578063ecdd04da1461019557610088565b8063216f47771461008d57806326449235146100bd57806335b6c82a146100f15780635a018e6a1461010d575b600080fd5b6100a760048036038101906100a29190610bac565b6101c8565b6040516100b49190610bf4565b60405180910390f35b6100d760048036038101906100d29190610d55565b6101e8565b6040516100e8959493929190610e36565b60405180910390f35b61010b60048036038101906101069190610bac565b6103cc565b005b6101156104b5565b604051610122919061103d565b60405180910390f35b610133610773565b604051610140919061106e565b60405180910390f35b610163600480360381019061015e91906110b5565b610797565b60405161017091906110e2565b60405180910390f35b610193600480360381019061018e9190611104565b610843565b005b6101af60048036038101906101aa9190610d55565b6109a9565b6040516101bf94939291906111d3565b60405180910390f35b60036020528060005260406000206000915054906101000a900460ff1681565b60028180516020810182018051848252602083016020850120818352809550505050505060009150905080600001805461022190611255565b80601f016020809104026020016040519081016040528092919081815260200182805461024d90611255565b801561029a5780601f1061026f5761010080835404028352916020019161029a565b820191906000526020600020905b81548152906001019060200180831161027d57829003601f168201915b5050505050908060010180546102af90611255565b80601f01602080910402602001604051908101604052809291908181526020018280546102db90611255565b80156103285780601f106102fd57610100808354040283529160200191610328565b820191906000526020600020905b81548152906001019060200180831161030b57829003601f168201915b50505050509080600201805461033d90611255565b80601f016020809104026020016040519081016040528092919081815260200182805461036990611255565b80156103b65780601f1061038b576101008083540402835291602001916103b6565b820191906000526020600020905b81548152906001019060200180831161039957829003601f168201915b5050505050908060030154908060040154905085565b60008054906101000a900473ffffffffffffffffffffffffffffffffffffffff1673ffffffffffffffffffffffffffffffffffffffff163373ffffffffffffffffffffffffffffffffffffffff161461045a576040517f08c379a0000000000000000000000000000000000000000000000000000000008152600401610451906112f8565b60405180910390fd5b6001600360008373ffffffffffffffffffffffffffffffffffffffff1673ffffffffffffffffffffffffffffffffffffffff16815260200190815260200160002060006101000a81548160ff02191690831515021790555050565b6060600060018054905067ffffffffffffffff8111156104d8576104d7610c2a565b5b60405190808252806020026020018201604052801561051157816020015b6104fe610b0b565b8152602001906001900390816104f65790505b50905060005b60018054905081101561076b57600060026001838154811061053c5761053b611318565b5b9060005260206000200160405161055391906113ea565b90815260200160405180910390209050806040518060a001604052908160008201805461057f90611255565b80601f01602080910402602001604051908101604052809291908181526020018280546105ab90611255565b80156105f85780601f106105cd576101008083540402835291602001916105f8565b820191906000526020600020905b8154815290600101906020018083116105db57829003601f168201915b5050505050815260200160018201805461061190611255565b80601f016020809104026020016040519081016040528092919081815260200182805461063d90611255565b801561068a5780601f1061065f5761010080835404028352916020019161068a565b820191906000526020600020905b81548152906001019060200180831161066d57829003601f168201915b505050505081526020016002820180546106a390611255565b80601f01602080910402602001604051908101604052809291908181526020018280546106cf90611255565b801561071c5780601f106106f15761010080835404028352916020019161071c565b820191906000526020600020905b8154815290600101906020018083116106ff57829003601f168201915b505050505081526020016003820154815260200160048201548152505083838151811061074c5761074b611318565b5b602002602001018190525050808061076390611430565b915050610517565b508091505090565b60008054906101000a900473ffffffffffffffffffffffffffffffffffffffff1681565b600181815481106107a757600080fd5b9060005260206000200160009150905080546107c290611255565b80601f01602080910402602001604051908101604052809291908181526020018280546107ee90611255565b801561083b5780601f106108105761010080835404028352916020019161083b565b820191906000526020600020905b81548152906001019060200180831161081e57829003601f168201915b505050505081565b600360003373ffffffffffffffffffffffffffffffffffffffff1673ffffffffffffffffffffffffffffffffffffffff16815260200190815260200160002060009054906101000a900460ff166108cf576040517f08c379a00000000000000000000000000000000000000000000000000000000081526004016108c6906114ea565b60405180910390fd5b6040518060a0016040528086815260200185815260200184815260200183815260200182815250600286604051610906919061153b565b9081526020016040518091039020600082015181600001908161092991906116e9565b50602082015181600101908161093f91906116e9565b50604082015181600201908161095591906116e9565b5060608201518160030155608082015181600401559050506001859080600181540180825580915050600190039060005260206000200160009091909190915090816109a191906116e9565b505050505050565b60608060008060006002866040516109c1919061153b565b908152602001604051809103902090508060010181600201826003015483600401548380546109ef90611255565b80601f0160208091040260200160405190810160405280929190818152602001828054610a1b90611255565b8015610a685780601f10610a3d57610100808354040283529160200191610a68565b820191906000526020600020905b815481529060010190602001808311610a4b57829003601f168201915b50505050509350828054610a7b90611255565b80601f0160208091040260200160405190810160405280929190818152602001828054610aa790611255565b8015610af45780601f10610ac957610100808354040283529160200191610af4565b820191906000526020600020905b815481529060010190602001808311610ad757829003601f168201915b505050505092509450945094509450509193509193565b6040518060a0016040528060608152602001606081526020016060815260200160008152602001600081525090565b6000604051905090565b600080fd5b600080fd5b600073ffffffffffffffffffffffffffffffffffffffff82169050919050565b6000610b7982610b4e565b9050919050565b610b8981610b6e565b8114610b9457600080fd5b50565b600081359050610ba681610b80565b92915050565b600060208284031215610bc257610bc1610b44565b5b6000610bd084828501610b97565b91505092915050565b60008115159050919050565b610bee81610bd9565b82525050565b6000602082019050610c096000830184610be5565b92915050565b600080fd5b600080fd5b6000601f19601f8301169050919050565b7f4e487b7100000000000000000000000000000000000000000000000000000000600052604160045260246000fd5b610c6282610c19565b810181811067ffffffffffffffff82111715610c8157610c80610c2a565b5b80604052505050565b6000610c94610b3a565b9050610ca08282610c59565b919050565b600067ffffffffffffffff821115610cc057610cbf610c2a565b5b610cc982610c19565b9050602081019050919050565b82818337600083830152505050565b6000610cf8610cf384610ca5565b610c8a565b905082815260208101848484011115610d1457610d13610c14565b5b610d1f848285610cd6565b509392505050565b600082601f830112610d3c57610d3b610c0f565b5b8135610d4c848260208601610ce5565b91505092915050565b600060208284031215610d6b57610d6a610b44565b5b600082013567ffffffffffffffff811115610d8957610d88610b49565b5b610d9584828501610d27565b91505092915050565b600081519050919050565b600082825260208201905092915050565b60005b83811015610dd8578082015181840152602081019050610dbd565b60008484015250505050565b6000610def82610d9e565b610df98185610da9565b9350610e09818560208601610dba565b610e1281610c19565b840191505092915050565b6000819050919050565b610e3081610e1d565b82525050565b600060a0820190508181036000830152610e508188610de4565b90508181036020830152610e648187610de4565b90508181036040830152610e788186610de4565b9050610e876060830185610e27565b610e946080830184610e27565b9695505050505050565b600081519050919050565b600082825260208201905092915050565b6000819050602082019050919050565b600082825260208201905092915050565b6000610ee682610d9e565b610ef08185610eca565b9350610f00818560208601610dba565b610f0981610c19565b840191505092915050565b610f1d81610e1d565b82525050565b600060a0830160008301518482036000860152610f408282610edb565b91505060208301518482036020860152610f5a8282610edb565b91505060408301518482036040860152610f748282610edb565b9150506060830151610f896060860182610f14565b506080830151610f9c6080860182610f14565b508091505092915050565b6000610fb38383610f23565b905092915050565b6000602082019050919050565b6000610fd382610e9e565b610fdd8185610ea9565b935083602082028501610fef85610eba565b8060005b8581101561102b578484038952815161100c8582610fa7565b945061101783610fbb565b925060208a01995050600181019050610ff3565b50829750879550505050505092915050565b600060208201905081810360008301526110578184610fc8565b905092915050565b61106881610b6e565b82525050565b6000602082019050611083600083018461105f565b92915050565b61109281610e1d565b811461109d57600080fd5b50565b6000813590506110af81611089565b92915050565b6000602082840312156110cb576110ca610b44565b5b60006110d9848285016110a0565b91505092915050565b600060208201905081810360008301526110fc8184610de4565b905092915050565b600080600080600060a086880312156111205761111f610b44565b5b600086013567ffffffffffffffff81111561113e5761113d610b49565b5b61114a88828901610d27565b955050602086013567ffffffffffffffff81111561116b5761116a610b49565b5b61117788828901610d27565b945050604086013567ffffffffffffffff81111561119857611197610b49565b5b6111a488828901610d27565b93505060606111b5888289016110a0565b92505060806111c6888289016110a0565b9150509295509295909350565b600060808201905081810360008301526111ed8187610de4565b905081810360208301526112018186610de4565b90506112106040830185610e27565b61121d6060830184610e27565b95945050505050565b7f4e487b7100000000000000000000000000000000000000000000000000000000600052602260045260246000fd5b6000600282049050600182168061126d57607f821691505b6020821081036112805761127f611226565b5b50919050565b7f4f6e6c7920746865206261736520636f6d70616e792077616c6c65742063616e60008201527f2063616c6c20746869732066756e6374696f6e00000000000000000000000000602082015250565b60006112e2603383610da9565b91506112ed82611286565b604082019050919050565b60006020820190508181036000830152611311816112d5565b9050919050565b7f4e487b7100000000000000000000000000000000000000000000000000000000600052603260045260246000fd5b600081905092915050565b60008190508160005260206000209050919050565b6000815461137481611255565b61137e8186611347565b9450600182166000811461139957600181146113ae576113e1565b60ff19831686528115158202860193506113e1565b6113b785611352565b60005b838110156113d9578154818901526001820191506020810190506113ba565b838801955050505b50505092915050565b60006113f68284611367565b915081905092915050565b7f4e487b7100000000000000000000000000000000000000000000000000000000600052601160045260246000fd5b600061143b82610e1d565b91507fffffffffffffffffffffffffffffffffffffffffffffffffffffffffffffffff820361146d5761146c611401565b5b600182019050919050565b7f4f6e6c7920617574686f72697a656420636f6d70616e792077616c6c6574732060008201527f63616e2063616c6c20746869732066756e6374696f6e00000000000000000000602082015250565b60006114d4603683610da9565b91506114df82611478565b604082019050919050565b60006020820190508181036000830152611503816114c7565b9050919050565b600061151582610d9e565b61151f8185611347565b935061152f818560208601610dba565b80840191505092915050565b6000611547828461150a565b915081905092915050565b60006020601f8301049050919050565b600082821b905092915050565b60006008830261159f7fffffffffffffffffffffffffffffffffffffffffffffffffffffffffffffffff82611562565b6115a98683611562565b95508019841693508086168417925050509392505050565b6000819050919050565b60006115e66115e16115dc84610e1d565b6115c1565b610e1d565b9050919050565b6000819050919050565b611600836115cb565b61161461160c826115ed565b84845461156f565b825550505050565b600090565b61162961161c565b6116348184846115f7565b505050565b5b818110156116585761164d600082611621565b60018101905061163a565b5050565b601f82111561169d5761166e81611352565b61167784611552565b81016020851015611686578190505b61169a61169285611552565b830182611639565b50505b505050565b600082821c905092915050565b60006116c0600019846008026116a2565b1980831691505092915050565b60006116d983836116af565b9150826002028217905092915050565b6116f282610d9e565b67ffffffffffffffff81111561170b5761170a610c2a565b5b6117158254611255565b61172082828561165c565b600060209050601f8311600181146117535760008415611741578287015190505b61174b85826116cd565b8655506117b3565b601f19841661176186611352565b60005b8281101561178957848901518255600182019150602085019450602081019050611764565b868310156117a657848901516117a2601f8916826116af565b8355505b6001600288020188555050505b50505050505056fea2646970667358221220283be5995df7a9733b2e63b6e6da4206fa5146e3ef4b99113f5dcd2fdb7045d264736f6c63430008130033",
  "linkReferences": {},
  "deployedLinkReferences": {}
}