{
  "_format": "hh-sol-artifact-1",
  "contractName": "BlockChain_DNS",
  "sourceName": "contracts/blockchain_contract.sol",
  "abi": [
    {
      "inputs": [],
      "stateMutability": "nonpayable",
      "type": "constructor"
    },
    {
      "inputs": [
        {
          "internalType": "address",
          "name": "wallet",
          "type": "address"
        }
      ],
      "name": "addAuthCompany",
      "outputs": [],
      "stateMutability": "nonpayable",
      "type": "function"
    },
    {
      "inputs": [
        {
          "internalType": "string",
          "name": "domain",
          "type": "string"
        },
        {
          "internalType": "string",
          "name": "ipAddr",
          "type": "string"
        },
        {
          "internalType": "string",
          "name": "ipAddrType",
          "type": "string"
        },
        {
          "internalType": "address",
          "name": "ownerId",
          "type": "address"
        },
        {
          "internalType": "uint64",
          "name": "timestamp",
          "type": "uint64"
        },
        {
          "internalType": "uint64",
          "name": "expiration",
          "type": "uint64"
        }
      ],
      "name": "addDomain",
      "outputs": [
        {
          "components": [
            {
              "internalType": "string",
              "name": "domain",
              "type": "string"
            },
            {
              "internalType": "string",
              "name": "ipAddr",
              "type": "string"
            },
            {
              "internalType": "string",
              "name": "ipAddrType",
              "type": "string"
            },
            {
              "internalType": "address",
              "name": "ownerId",
              "type": "address"
            },
            {
              "internalType": "address",
              "name": "authCompanyId",
              "type": "address"
            },
            {
              "internalType": "uint64",
              "name": "timestamp",
              "type": "uint64"
            },
            {
              "internalType": "uint64",
              "name": "expiration",
              "type": "uint64"
            }
          ],
          "internalType": "struct BlockChain_DNS.Domain",
          "name": "",
          "type": "tuple"
        }
      ],
      "stateMutability": "nonpayable",
      "type": "function"
    },
    {
      "inputs": [
        {
          "internalType": "address",
          "name": "",
          "type": "address"
        }
      ],
      "name": "authCompanies",
      "outputs": [
        {
          "internalType": "bool",
          "name": "",
          "type": "bool"
        }
      ],
      "stateMutability": "view",
      "type": "function"
    },
    {
      "inputs": [],
      "name": "baseCompanyWallet",
      "outputs": [
        {
          "internalType": "address",
          "name": "",
          "type": "address"
        }
      ],
      "stateMutability": "view",
      "type": "function"
    },
    {
      "inputs": [
        {
          "internalType": "uint256",
          "name": "",
          "type": "uint256"
        }
      ],
      "name": "domainNames",
      "outputs": [
        {
          "internalType": "string",
          "name": "",
          "type": "string"
        }
      ],
      "stateMutability": "view",
      "type": "function"
    },
    {
      "inputs": [
        {
          "internalType": "string",
          "name": "",
          "type": "string"
        }
      ],
      "name": "domains",
      "outputs": [
        {
          "internalType": "string",
          "name": "domain",
          "type": "string"
        },
        {
          "internalType": "string",
          "name": "ipAddr",
          "type": "string"
        },
        {
          "internalType": "string",
          "name": "ipAddrType",
          "type": "string"
        },
        {
          "internalType": "address",
          "name": "ownerId",
          "type": "address"
        },
        {
          "internalType": "address",
          "name": "authCompanyId",
          "type": "address"
        },
        {
          "internalType": "uint64",
          "name": "timestamp",
          "type": "uint64"
        },
        {
          "internalType": "uint64",
          "name": "expiration",
          "type": "uint64"
        }
      ],
      "stateMutability": "view",
      "type": "function"
    },
    {
      "inputs": [],
      "name": "getAllDomains",
      "outputs": [
        {
          "components": [
            {
              "internalType": "string",
              "name": "domain",
              "type": "string"
            },
            {
              "internalType": "string",
              "name": "ipAddr",
              "type": "string"
            },
            {
              "internalType": "string",
              "name": "ipAddrType",
              "type": "string"
            },
            {
              "internalType": "address",
              "name": "ownerId",
              "type": "address"
            },
            {
              "internalType": "address",
              "name": "authCompanyId",
              "type": "address"
            },
            {
              "internalType": "uint64",
              "name": "timestamp",
              "type": "uint64"
            },
            {
              "internalType": "uint64",
              "name": "expiration",
              "type": "uint64"
            }
          ],
          "internalType": "struct BlockChain_DNS.Domain[]",
          "name": "",
          "type": "tuple[]"
        }
      ],
      "stateMutability": "view",
      "type": "function"
    },
    {
      "inputs": [
        {
          "internalType": "string",
          "name": "domainName",
          "type": "string"
        }
      ],
      "name": "getDomain",
      "outputs": [
        {
          "internalType": "string",
          "name": "",
          "type": "string"
        },
        {
          "internalType": "uint64",
          "name": "expiration",
          "type": "uint64"
        }
      ],
      "stateMutability": "view",
      "type": "function"
    }
  ],
  "bytecode": "0x608060405234801561001057600080fd5b50336000806101000a81548173ffffffffffffffffffffffffffffffffffffffff021916908373ffffffffffffffffffffffffffffffffffffffff1602179055506001600360008060009054906101000a900473ffffffffffffffffffffffffffffffffffffffff1673ffffffffffffffffffffffffffffffffffffffff1673ffffffffffffffffffffffffffffffffffffffff16815260200190815260200160002060006101000a81548160ff021916908315150217905550611ea5806100d96000396000f3fe608060405234801561001057600080fd5b50600436106100885760003560e01c8063636921cf1161005b578063636921cf1461012d578063658c734a1461015d578063ecdd04da1461017b578063ef2bf8b4146101ac57610088565b8063216f47771461008d57806326449235146100bd57806335b6c82a146100f35780635a018e6a1461010f575b600080fd5b6100a760048036038101906100a29190611114565b6101dc565b6040516100b4919061115c565b60405180910390f35b6100d760048036038101906100d291906112bd565b6101fc565b6040516100ea97969594939291906113b7565b60405180910390f35b61010d60048036038101906101089190611114565b610454565b005b61011761053d565b604051610124919061160f565b60405180910390f35b61014760048036038101906101429190611667565b6108f7565b6040516101549190611694565b60405180910390f35b6101656109a3565b60405161017291906116b6565b60405180910390f35b610195600480360381019061019091906112bd565b6109c7565b6040516101a39291906116d1565b60405180910390f35b6101c660048036038101906101c1919061172d565b610a9f565b6040516101d391906118b8565b60405180910390f35b60036020528060005260406000206000915054906101000a900460ff1681565b60028180516020810182018051848252602083016020850120818352809550505050505060009150905080600001805461023590611909565b80601f016020809104026020016040519081016040528092919081815260200182805461026190611909565b80156102ae5780601f10610283576101008083540402835291602001916102ae565b820191906000526020600020905b81548152906001019060200180831161029157829003601f168201915b5050505050908060010180546102c390611909565b80601f01602080910402602001604051908101604052809291908181526020018280546102ef90611909565b801561033c5780601f106103115761010080835404028352916020019161033c565b820191906000526020600020905b81548152906001019060200180831161031f57829003601f168201915b50505050509080600201805461035190611909565b80601f016020809104026020016040519081016040528092919081815260200182805461037d90611909565b80156103ca5780601f1061039f576101008083540402835291602001916103ca565b820191906000526020600020905b8154815290600101906020018083116103ad57829003601f168201915b5050505050908060030160009054906101000a900473ffffffffffffffffffffffffffffffffffffffff16908060040160009054906101000a900473ffffffffffffffffffffffffffffffffffffffff16908060040160149054906101000a900467ffffffffffffffff16908060050160009054906101000a900467ffffffffffffffff16905087565b60008054906101000a900473ffffffffffffffffffffffffffffffffffffffff1673ffffffffffffffffffffffffffffffffffffffff163373ffffffffffffffffffffffffffffffffffffffff16146104e2576040517f08c379a00000000000000000000000000000000000000000000000000000000081526004016104d9906119ac565b60405180910390fd5b6001600360008373ffffffffffffffffffffffffffffffffffffffff1673ffffffffffffffffffffffffffffffffffffffff16815260200190815260200160002060006101000a81548160ff02191690831515021790555050565b6060600060018054905067ffffffffffffffff8111156105605761055f611192565b5b60405190808252806020026020018201604052801561059957816020015b610586611025565b81526020019060019003908161057e5790505b50905060005b6001805490508110156108ef5760006002600183815481106105c4576105c36119cc565b5b906000526020600020016040516105db9190611a9e565b90815260200160405180910390209050806040518060e001604052908160008201805461060790611909565b80601f016020809104026020016040519081016040528092919081815260200182805461063390611909565b80156106805780601f1061065557610100808354040283529160200191610680565b820191906000526020600020905b81548152906001019060200180831161066357829003601f168201915b5050505050815260200160018201805461069990611909565b80601f01602080910402602001604051908101604052809291908181526020018280546106c590611909565b80156107125780601f106106e757610100808354040283529160200191610712565b820191906000526020600020905b8154815290600101906020018083116106f557829003601f168201915b5050505050815260200160028201805461072b90611909565b80601f016020809104026020016040519081016040528092919081815260200182805461075790611909565b80156107a45780601f10610779576101008083540402835291602001916107a4565b820191906000526020600020905b81548152906001019060200180831161078757829003601f168201915b505050505081526020016003820160009054906101000a900473ffffffffffffffffffffffffffffffffffffffff1673ffffffffffffffffffffffffffffffffffffffff1673ffffffffffffffffffffffffffffffffffffffff1681526020016004820160009054906101000a900473ffffffffffffffffffffffffffffffffffffffff1673ffffffffffffffffffffffffffffffffffffffff1673ffffffffffffffffffffffffffffffffffffffff1681526020016004820160149054906101000a900467ffffffffffffffff1667ffffffffffffffff1667ffffffffffffffff1681526020016005820160009054906101000a900467ffffffffffffffff1667ffffffffffffffff1667ffffffffffffffff16815250508383815181106108d0576108cf6119cc565b5b60200260200101819052505080806108e790611ae4565b91505061059f565b508091505090565b6001818154811061090757600080fd5b90600052602060002001600091509050805461092290611909565b80601f016020809104026020016040519081016040528092919081815260200182805461094e90611909565b801561099b5780601f106109705761010080835404028352916020019161099b565b820191906000526020600020905b81548152906001019060200180831161097e57829003601f168201915b505050505081565b60008054906101000a900473ffffffffffffffffffffffffffffffffffffffff1681565b60606000806002846040516109dc9190611b5d565b90815260200160405180910390209050806001018160050160009054906101000a900467ffffffffffffffff16818054610a1590611909565b80601f0160208091040260200160405190810160405280929190818152602001828054610a4190611909565b8015610a8e5780601f10610a6357610100808354040283529160200191610a8e565b820191906000526020600020905b815481529060010190602001808311610a7157829003601f168201915b505050505091509250925050915091565b610aa7611025565b600360003373ffffffffffffffffffffffffffffffffffffffff1673ffffffffffffffffffffffffffffffffffffffff16815260200190815260200160002060009054906101000a900460ff16610b33576040517f08c379a0000000000000000000000000000000000000000000000000000000008152600401610b2a90611be6565b60405180910390fd5b6040518060e001604052808881526020018781526020018681526020018573ffffffffffffffffffffffffffffffffffffffff1681526020013373ffffffffffffffffffffffffffffffffffffffff1681526020018467ffffffffffffffff1681526020018367ffffffffffffffff16815250600288604051610bb69190611b5d565b90815260200160405180910390206000820151816000019081610bd99190611d9d565b506020820151816001019081610bef9190611d9d565b506040820151816002019081610c059190611d9d565b5060608201518160030160006101000a81548173ffffffffffffffffffffffffffffffffffffffff021916908373ffffffffffffffffffffffffffffffffffffffff16021790555060808201518160040160006101000a81548173ffffffffffffffffffffffffffffffffffffffff021916908373ffffffffffffffffffffffffffffffffffffffff16021790555060a08201518160040160146101000a81548167ffffffffffffffff021916908367ffffffffffffffff16021790555060c08201518160050160006101000a81548167ffffffffffffffff021916908367ffffffffffffffff160217905550905050600187908060018154018082558091505060019003906000526020600020016000909190919091509081610d299190611d9d565b50600287604051610d3a9190611b5d565b90815260200160405180910390206040518060e0016040529081600082018054610d6390611909565b80601f0160208091040260200160405190810160405280929190818152602001828054610d8f90611909565b8015610ddc5780601f10610db157610100808354040283529160200191610ddc565b820191906000526020600020905b815481529060010190602001808311610dbf57829003601f168201915b50505050508152602001600182018054610df590611909565b80601f0160208091040260200160405190810160405280929190818152602001828054610e2190611909565b8015610e6e5780601f10610e4357610100808354040283529160200191610e6e565b820191906000526020600020905b815481529060010190602001808311610e5157829003601f168201915b50505050508152602001600282018054610e8790611909565b80601f0160208091040260200160405190810160405280929190818152602001828054610eb390611909565b8015610f005780601f10610ed557610100808354040283529160200191610f00565b820191906000526020600020905b815481529060010190602001808311610ee357829003601f168201915b505050505081526020016003820160009054906101000a900473ffffffffffffffffffffffffffffffffffffffff1673ffffffffffffffffffffffffffffffffffffffff1673ffffffffffffffffffffffffffffffffffffffff1681526020016004820160009054906101000a900473ffffffffffffffffffffffffffffffffffffffff1673ffffffffffffffffffffffffffffffffffffffff1673ffffffffffffffffffffffffffffffffffffffff1681526020016004820160149054906101000a900467ffffffffffffffff1667ffffffffffffffff1667ffffffffffffffff1681526020016005820160009054906101000a900467ffffffffffffffff1667ffffffffffffffff1667ffffffffffffffff168152505090509695505050505050565b6040518060e00160405280606081526020016060815260200160608152602001600073ffffffffffffffffffffffffffffffffffffffff168152602001600073ffffffffffffffffffffffffffffffffffffffff168152602001600067ffffffffffffffff168152602001600067ffffffffffffffff1681525090565b6000604051905090565b600080fd5b600080fd5b600073ffffffffffffffffffffffffffffffffffffffff82169050919050565b60006110e1826110b6565b9050919050565b6110f1816110d6565b81146110fc57600080fd5b50565b60008135905061110e816110e8565b92915050565b60006020828403121561112a576111296110ac565b5b6000611138848285016110ff565b91505092915050565b60008115159050919050565b61115681611141565b82525050565b6000602082019050611171600083018461114d565b92915050565b600080fd5b600080fd5b6000601f19601f8301169050919050565b7f4e487b7100000000000000000000000000000000000000000000000000000000600052604160045260246000fd5b6111ca82611181565b810181811067ffffffffffffffff821117156111e9576111e8611192565b5b80604052505050565b60006111fc6110a2565b905061120882826111c1565b919050565b600067ffffffffffffffff82111561122857611227611192565b5b61123182611181565b9050602081019050919050565b82818337600083830152505050565b600061126061125b8461120d565b6111f2565b90508281526020810184848401111561127c5761127b61117c565b5b61128784828561123e565b509392505050565b600082601f8301126112a4576112a3611177565b5b81356112b484826020860161124d565b91505092915050565b6000602082840312156112d3576112d26110ac565b5b600082013567ffffffffffffffff8111156112f1576112f06110b1565b5b6112fd8482850161128f565b91505092915050565b600081519050919050565b600082825260208201905092915050565b60005b83811015611340578082015181840152602081019050611325565b60008484015250505050565b600061135782611306565b6113618185611311565b9350611371818560208601611322565b61137a81611181565b840191505092915050565b61138e816110d6565b82525050565b600067ffffffffffffffff82169050919050565b6113b181611394565b82525050565b600060e08201905081810360008301526113d1818a61134c565b905081810360208301526113e5818961134c565b905081810360408301526113f9818861134c565b90506114086060830187611385565b6114156080830186611385565b61142260a08301856113a8565b61142f60c08301846113a8565b98975050505050505050565b600081519050919050565b600082825260208201905092915050565b6000819050602082019050919050565b600082825260208201905092915050565b600061148382611306565b61148d8185611467565b935061149d818560208601611322565b6114a681611181565b840191505092915050565b6114ba816110d6565b82525050565b6114c981611394565b82525050565b600060e08301600083015184820360008601526114ec8282611478565b915050602083015184820360208601526115068282611478565b915050604083015184820360408601526115208282611478565b915050606083015161153560608601826114b1565b50608083015161154860808601826114b1565b5060a083015161155b60a08601826114c0565b5060c083015161156e60c08601826114c0565b508091505092915050565b600061158583836114cf565b905092915050565b6000602082019050919050565b60006115a58261143b565b6115af8185611446565b9350836020820285016115c185611457565b8060005b858110156115fd57848403895281516115de8582611579565b94506115e98361158d565b925060208a019950506001810190506115c5565b50829750879550505050505092915050565b60006020820190508181036000830152611629818461159a565b905092915050565b6000819050919050565b61164481611631565b811461164f57600080fd5b50565b6000813590506116618161163b565b92915050565b60006020828403121561167d5761167c6110ac565b5b600061168b84828501611652565b91505092915050565b600060208201905081810360008301526116ae818461134c565b905092915050565b60006020820190506116cb6000830184611385565b92915050565b600060408201905081810360008301526116eb818561134c565b90506116fa60208301846113a8565b9392505050565b61170a81611394565b811461171557600080fd5b50565b60008135905061172781611701565b92915050565b60008060008060008060c0878903121561174a576117496110ac565b5b600087013567ffffffffffffffff811115611768576117676110b1565b5b61177489828a0161128f565b965050602087013567ffffffffffffffff811115611795576117946110b1565b5b6117a189828a0161128f565b955050604087013567ffffffffffffffff8111156117c2576117c16110b1565b5b6117ce89828a0161128f565b94505060606117df89828a016110ff565b93505060806117f089828a01611718565b92505060a061180189828a01611718565b9150509295509295509295565b600060e083016000830151848203600086015261182b8282611478565b915050602083015184820360208601526118458282611478565b9150506040830151848203604086015261185f8282611478565b915050606083015161187460608601826114b1565b50608083015161188760808601826114b1565b5060a083015161189a60a08601826114c0565b5060c08301516118ad60c08601826114c0565b508091505092915050565b600060208201905081810360008301526118d2818461180e565b905092915050565b7f4e487b7100000000000000000000000000000000000000000000000000000000600052602260045260246000fd5b6000600282049050600182168061192157607f821691505b602082108103611934576119336118da565b5b50919050565b7f4f6e6c7920746865206261736520636f6d70616e792077616c6c65742063616e60008201527f2063616c6c20746869732066756e6374696f6e00000000000000000000000000602082015250565b6000611996603383611311565b91506119a18261193a565b604082019050919050565b600060208201905081810360008301526119c581611989565b9050919050565b7f4e487b7100000000000000000000000000000000000000000000000000000000600052603260045260246000fd5b600081905092915050565b60008190508160005260206000209050919050565b60008154611a2881611909565b611a3281866119fb565b94506001821660008114611a4d5760018114611a6257611a95565b60ff1983168652811515820286019350611a95565b611a6b85611a06565b60005b83811015611a8d57815481890152600182019150602081019050611a6e565b838801955050505b50505092915050565b6000611aaa8284611a1b565b915081905092915050565b7f4e487b7100000000000000000000000000000000000000000000000000000000600052601160045260246000fd5b6000611aef82611631565b91507fffffffffffffffffffffffffffffffffffffffffffffffffffffffffffffffff8203611b2157611b20611ab5565b5b600182019050919050565b6000611b3782611306565b611b4181856119fb565b9350611b51818560208601611322565b80840191505092915050565b6000611b698284611b2c565b915081905092915050565b7f4f6e6c7920617574686f72697a656420636f6d70616e792077616c6c6574732060008201527f63616e2063616c6c20746869732066756e6374696f6e00000000000000000000602082015250565b6000611bd0603683611311565b9150611bdb82611b74565b604082019050919050565b60006020820190508181036000830152611bff81611bc3565b9050919050565b60006020601f8301049050919050565b600082821b905092915050565b600060088302611c537fffffffffffffffffffffffffffffffffffffffffffffffffffffffffffffffff82611c16565b611c5d8683611c16565b95508019841693508086168417925050509392505050565b6000819050919050565b6000611c9a611c95611c9084611631565b611c75565b611631565b9050919050565b6000819050919050565b611cb483611c7f565b611cc8611cc082611ca1565b848454611c23565b825550505050565b600090565b611cdd611cd0565b611ce8818484611cab565b505050565b5b81811015611d0c57611d01600082611cd5565b600181019050611cee565b5050565b601f821115611d5157611d2281611a06565b611d2b84611c06565b81016020851015611d3a578190505b611d4e611d4685611c06565b830182611ced565b50505b505050565b600082821c905092915050565b6000611d7460001984600802611d56565b1980831691505092915050565b6000611d8d8383611d63565b9150826002028217905092915050565b611da682611306565b67ffffffffffffffff811115611dbf57611dbe611192565b5b611dc98254611909565b611dd4828285611d10565b600060209050601f831160018114611e075760008415611df5578287015190505b611dff8582611d81565b865550611e67565b601f198416611e1586611a06565b60005b82811015611e3d57848901518255600182019150602085019450602081019050611e18565b86831015611e5a5784890151611e56601f891682611d63565b8355505b6001600288020188555050505b50505050505056fea26469706673582212200efb6a66a26951512977cf1af16bb79303bde0b780ad494e14af673da73e3a1564736f6c63430008130033",
  "linkReferences": {},
  "deployedLinkReferences": {}
}